{"contracts/MedVaultRecords.sol":{"MedVaultRecords":{"abi":[{"inputs":[],"stateMutability":"nonpayable","type":"constructor"},{"anonymous":false,"inputs":[{"indexed":false,"internalType":"address","name":"admin","type":"address"}],"name":"AdminAdded","type":"event"},{"anonymous":false,"inputs":[{"indexed":false,"internalType":"address","name":"doctor","type":"address"}],"name":"DoctorAdded","type":"event"},{"anonymous":false,"inputs":[{"indexed":false,"internalType":"string","name":"id","type":"string"},{"indexed":false,"internalType":"string","name":"updatedHistory","type":"string"}],"name":"MedicalHistoryUpdated","type":"event"},{"anonymous":false,"inputs":[{"indexed":false,"internalType":"string","name":"id","type":"string"},{"indexed":false,"internalType":"string","name":"patientName","type":"string"}],"name":"PatientRegistered","type":"event"},{"inputs":[{"internalType":"address","name":"admin","type":"address"}],"name":"addAdmin","outputs":[],"stateMutability":"nonpayable","type":"function"},{"inputs":[{"internalType":"address","name":"doctor","type":"address"}],"name":"addDoctor","outputs":[],"stateMutability":"nonpayable","type":"function"},{"inputs":[{"internalType":"address","name":"","type":"address"}],"name":"admins","outputs":[{"internalType":"bool","name":"","type":"bool"}],"stateMutability":"view","type":"function"},{"inputs":[{"internalType":"address","name":"","type":"address"}],"name":"doctors","outputs":[{"internalType":"bool","name":"","type":"bool"}],"stateMutability":"view","type":"function"},{"inputs":[],"name":"owner","outputs":[{"internalType":"address","name":"","type":"address"}],"stateMutability":"view","type":"function"},{"inputs":[{"internalType":"string","name":"","type":"string"}],"name":"patients","outputs":[{"internalType":"string","name":"id","type":"string"},{"internalType":"string","name":"name","type":"string"},{"internalType":"string","name":"gender","type":"string"},{"internalType":"string","name":"dateOfBirth","type":"string"},{"internalType":"string","name":"bloodType","type":"string"},{"internalType":"string","name":"imageUrl","type":"string"},{"internalType":"string","name":"medicalHistory","type":"string"},{"internalType":"string","name":"treatmentHistory","type":"string"}],"stateMutability":"view","type":"function"},{"inputs":[{"internalType":"string","name":"id","type":"string"},{"internalType":"string","name":"name","type":"string"},{"internalType":"string","name":"gender","type":"string"},{"internalType":"string","name":"dateOfBirth","type":"string"},{"internalType":"string","name":"bloodType","type":"string"},{"internalType":"string","name":"imageUrl","type":"string"},{"internalType":"string","name":"medicalHistory","type":"string"},{"internalType":"string","name":"treatmentHistory","type":"string"}],"name":"registerPatient","outputs":[],"stateMutability":"nonpayable","type":"function"},{"inputs":[{"internalType":"string","name":"id","type":"string"},{"internalType":"string","name":"newMedicalHistory","type":"string"}],"name":"updateMedicalHistory","outputs":[],"stateMutability":"nonpayable","type":"function"},{"inputs":[{"internalType":"string","name":"id","type":"string"}],"name":"viewMedicalHistory","outputs":[{"internalType":"string","name":"","type":"string"}],"stateMutability":"view","type":"function"}],"evm":{"bytecode":{"linkReferences":{},"object":"608060405234801561001057600080fd5b50336000806101000a81548173ffffffffffffffffffffffffffffffffffffffff021916908373ffffffffffffffffffffffffffffffffffffffff160217905550611952806100606000396000f3fe608060405234801561001057600080fd5b50600436106100935760003560e01c80634780468f116100665780634780468f14610130578063704802751461014c5780638da5cb5b14610168578063a9583c2214610186578063c6009d84146101b657610093565b80631214570a14610098578063215fd7e7146100c857806329cf54a3146100e4578063429b62e514610100575b600080fd5b6100b260048036038101906100ad9190610fd4565b6101ed565b6040516100bf919061140d565b60405180910390f35b6100e260048036038101906100dd9190611015565b6103c1565b005b6100fe60048036038101906100f99190611081565b610531565b005b61011a60048036038101906101159190610fab565b610749565b60405161012791906113f2565b60405180910390f35b61014a60048036038101906101459190610fab565b610769565b005b61016660048036038101906101619190610fab565b610889565b005b6101706109a9565b60405161017d91906113d7565b60405180910390f35b6101a0600480360381019061019b9190610fab565b6109cd565b6040516101ad91906113f2565b60405180910390f35b6101d060048036038101906101cb9190610fd4565b6109ed565b6040516101e4989796959493929190611466565b60405180910390f35b6060818060405160200161020191906113a9565b6040516020818303038152906040528051906020012060018260405161022791906113a9565b908152602001604051809103902060000160405160200161024891906113c0565b604051602081830303815290604052805190602001201461029e576040517f08c379a00000000000000000000000000000000000000000000000000000000081526004016102959061153c565b60405180910390fd5b60006001846040516102b091906113a9565b908152602001604051809103902060000180546102cc906116ce565b9050141561030f576040517f08c379a00000000000000000000000000000000000000000000000000000000081526004016103069061155c565b60405180910390fd5b60018360405161031f91906113a9565b9081526020016040518091039020600601805461033b906116ce565b80601f0160208091040260200160405190810160405280929190818152602001828054610367906116ce565b80156103b45780601f10610389576101008083540402835291602001916103b4565b820191906000526020600020905b81548152906001019060200180831161039757829003601f168201915b5050505050915050919050565b600260003373ffffffffffffffffffffffffffffffffffffffff1673ffffffffffffffffffffffffffffffffffffffff16815260200190815260200160002060009054906101000a900460ff1661044d576040517f08c379a00000000000000000000000000000000000000000000000000000000081526004016104449061151c565b60405180910390fd5b600060018360405161045f91906113a9565b9081526020016040518091039020600001805461047b906116ce565b905014156104be576040517f08c379a00000000000000000000000000000000000000000000000000000000081526004016104b59061155c565b60405180910390fd5b806001836040516104cf91906113a9565b908152602001604051809103902060060190805190602001906104f3929190610e8b565b507fd31b335f901709f0ccd4b82b7bb6e539ed7d8830fab725b2848e4ec4f8ac7514828260405161052592919061142f565b60405180910390a15050565b600360003373ffffffffffffffffffffffffffffffffffffffff1673ffffffffffffffffffffffffffffffffffffffff16815260200190815260200160002060009054906101000a900460ff166105bd576040517f08c379a00000000000000000000000000000000000000000000000000000000081526004016105b49061157c565b60405180910390fd5b60006040518061010001604052808a81526020018981526020018881526020018781526020018681526020018581526020018481526020018381525090508060018a60405161060c91906113a9565b90815260200160405180910390206000820151816000019080519060200190610636929190610e8b565b506020820151816001019080519060200190610653929190610e8b565b506040820151816002019080519060200190610670929190610e8b565b50606082015181600301908051906020019061068d929190610e8b565b5060808201518160040190805190602001906106aa929190610e8b565b5060a08201518160050190805190602001906106c7929190610e8b565b5060c08201518160060190805190602001906106e4929190610e8b565b5060e0820151816007019080519060200190610701929190610e8b565b509050507ff57ecee040edfbd184404d12d5f2f7343575add2ba648066a9a501fa19bf3a27898960405161073692919061142f565b60405180910390a1505050505050505050565b60036020528060005260406000206000915054906101000a900460ff1681565b60008054906101000a900473ffffffffffffffffffffffffffffffffffffffff1673ffffffffffffffffffffffffffffffffffffffff163373ffffffffffffffffffffffffffffffffffffffff16146107f7576040517f08c379a00000000000000000000000000000000000000000000000000000000081526004016107ee9061159c565b60405180910390fd5b6001600260008373ffffffffffffffffffffffffffffffffffffffff1673ffffffffffffffffffffffffffffffffffffffff16815260200190815260200160002060006101000a81548160ff0219169083151502179055507f69908b2e63170aa89ef89719bbe3b4c92cccc38653968ab25f4464eff7c28ac88160405161087e91906113d7565b60405180910390a150565b60008054906101000a900473ffffffffffffffffffffffffffffffffffffffff1673ffffffffffffffffffffffffffffffffffffffff163373ffffffffffffffffffffffffffffffffffffffff1614610917576040517f08c379a000000000000000000000000000000000000000000000000000000000815260040161090e9061159c565b60405180910390fd5b6001600360008373ffffffffffffffffffffffffffffffffffffffff1673ffffffffffffffffffffffffffffffffffffffff16815260200190815260200160002060006101000a81548160ff0219169083151502179055507f44d6d25963f097ad14f29f06854a01f575648a1ef82f30e562ccd3889717e3398160405161099e91906113d7565b60405180910390a150565b60008054906101000a900473ffffffffffffffffffffffffffffffffffffffff1681565b60026020528060005260406000206000915054906101000a900460ff1681565b600181805160208101820180518482526020830160208501208183528095505050505050600091509050806000018054610a26906116ce565b80601f0160208091040260200160405190810160405280929190818152602001828054610a52906116ce565b8015610a9f5780601f10610a7457610100808354040283529160200191610a9f565b820191906000526020600020905b815481529060010190602001808311610a8257829003601f168201915b505050505090806001018054610ab4906116ce565b80601f0160208091040260200160405190810160405280929190818152602001828054610ae0906116ce565b8015610b2d5780601f10610b0257610100808354040283529160200191610b2d565b820191906000526020600020905b815481529060010190602001808311610b1057829003601f168201915b505050505090806002018054610b42906116ce565b80601f0160208091040260200160405190810160405280929190818152602001828054610b6e906116ce565b8015610bbb5780601f10610b9057610100808354040283529160200191610bbb565b820191906000526020600020905b815481529060010190602001808311610b9e57829003601f168201915b505050505090806003018054610bd0906116ce565b80601f0160208091040260200160405190810160405280929190818152602001828054610bfc906116ce565b8015610c495780601f10610c1e57610100808354040283529160200191610c49565b820191906000526020600020905b815481529060010190602001808311610c2c57829003601f168201915b505050505090806004018054610c5e906116ce565b80601f0160208091040260200160405190810160405280929190818152602001828054610c8a906116ce565b8015610cd75780601f10610cac57610100808354040283529160200191610cd7565b820191906000526020600020905b815481529060010190602001808311610cba57829003601f168201915b505050505090806005018054610cec906116ce565b80601f0160208091040260200160405190810160405280929190818152602001828054610d18906116ce565b8015610d655780601f10610d3a57610100808354040283529160200191610d65565b820191906000526020600020905b815481529060010190602001808311610d4857829003601f168201915b505050505090806006018054610d7a906116ce565b80601f0160208091040260200160405190810160405280929190818152602001828054610da6906116ce565b8015610df35780601f10610dc857610100808354040283529160200191610df3565b820191906000526020600020905b815481529060010190602001808311610dd657829003601f168201915b505050505090806007018054610e08906116ce565b80601f0160208091040260200160405190810160405280929190818152602001828054610e34906116ce565b8015610e815780601f10610e5657610100808354040283529160200191610e81565b820191906000526020600020905b815481529060010190602001808311610e6457829003601f168201915b5050505050905088565b828054610e97906116ce565b90600052602060002090601f016020900481019282610eb95760008555610f00565b82601f10610ed257805160ff1916838001178555610f00565b82800160010185558215610f00579182015b82811115610eff578251825591602001919060010190610ee4565b5b509050610f0d9190610f11565b5090565b5b80821115610f2a576000816000905550600101610f12565b5090565b6000610f41610f3c846115e1565b6115bc565b905082815260208101848484011115610f5957600080fd5b610f6484828561168c565b509392505050565b600081359050610f7b81611905565b92915050565b600082601f830112610f9257600080fd5b8135610fa2848260208601610f2e565b91505092915050565b600060208284031215610fbd57600080fd5b6000610fcb84828501610f6c565b91505092915050565b600060208284031215610fe657600080fd5b600082013567ffffffffffffffff81111561100057600080fd5b61100c84828501610f81565b91505092915050565b6000806040838503121561102857600080fd5b600083013567ffffffffffffffff81111561104257600080fd5b61104e85828601610f81565b925050602083013567ffffffffffffffff81111561106b57600080fd5b61107785828601610f81565b9150509250929050565b600080600080600080600080610100898b03121561109e57600080fd5b600089013567ffffffffffffffff8111156110b857600080fd5b6110c48b828c01610f81565b985050602089013567ffffffffffffffff8111156110e157600080fd5b6110ed8b828c01610f81565b975050604089013567ffffffffffffffff81111561110a57600080fd5b6111168b828c01610f81565b965050606089013567ffffffffffffffff81111561113357600080fd5b61113f8b828c01610f81565b955050608089013567ffffffffffffffff81111561115c57600080fd5b6111688b828c01610f81565b94505060a089013567ffffffffffffffff81111561118557600080fd5b6111918b828c01610f81565b93505060c089013567ffffffffffffffff8111156111ae57600080fd5b6111ba8b828c01610f81565b92505060e089013567ffffffffffffffff8111156111d757600080fd5b6111e38b828c01610f81565b9150509295985092959890939650565b6111fc8161164e565b82525050565b61120b81611660565b82525050565b600061121c82611627565b6112268185611632565b935061123681856020860161169b565b61123f8161178f565b840191505092915050565b600061125582611627565b61125f8185611643565b935061126f81856020860161169b565b80840191505092915050565b60008154611288816116ce565b6112928186611643565b945060018216600081146112ad57600181146112be576112f1565b60ff198316865281860193506112f1565b6112c785611612565b60005b838110156112e9578154818901526001820191506020810190506112ca565b838801955050505b50505092915050565b6000611307602383611632565b9150611312826117a0565b604082019050919050565b600061132a602b83611632565b9150611335826117ef565b604082019050919050565b600061134d601183611632565b91506113588261183e565b602082019050919050565b6000611370602283611632565b915061137b82611867565b604082019050919050565b6000611393602283611632565b915061139e826118b6565b604082019050919050565b60006113b5828461124a565b915081905092915050565b60006113cc828461127b565b915081905092915050565b60006020820190506113ec60008301846111f3565b92915050565b60006020820190506114076000830184611202565b92915050565b600060208201905081810360008301526114278184611211565b905092915050565b600060408201905081810360008301526114498185611211565b9050818103602083015261145d8184611211565b90509392505050565b6000610100820190508181036000830152611481818b611211565b90508181036020830152611495818a611211565b905081810360408301526114a98189611211565b905081810360608301526114bd8188611211565b905081810360808301526114d18187611211565b905081810360a08301526114e58186611211565b905081810360c08301526114f98185611211565b905081810360e083015261150d8184611211565b90509998505050505050505050565b60006020820190508181036000830152611535816112fa565b9050919050565b600060208201905081810360008301526115558161131d565b9050919050565b6000602082019050818103600083015261157581611340565b9050919050565b6000602082019050818103600083015261159581611363565b9050919050565b600060208201905081810360008301526115b581611386565b9050919050565b60006115c66115d7565b90506115d28282611700565b919050565b6000604051905090565b600067ffffffffffffffff8211156115fc576115fb611760565b5b6116058261178f565b9050602081019050919050565b60008190508160005260206000209050919050565b600081519050919050565b600082825260208201905092915050565b600081905092915050565b60006116598261166c565b9050919050565b60008115159050919050565b600073ffffffffffffffffffffffffffffffffffffffff82169050919050565b82818337600083830152505050565b60005b838110156116b957808201518184015260208101905061169e565b838111156116c8576000848401525b50505050565b600060028204905060018216806116e657607f821691505b602082108114156116fa576116f9611731565b5b50919050565b6117098261178f565b810181811067ffffffffffffffff8211171561172857611727611760565b5b80604052505050565b7f4e487b7100000000000000000000000000000000000000000000000000000000600052602260045260246000fd5b7f4e487b7100000000000000000000000000000000000000000000000000000000600052604160045260246000fd5b6000601f19601f8301169050919050565b7f4f6e6c7920646f63746f722063616e20706572666f726d20746869732061637460008201527f696f6e0000000000000000000000000000000000000000000000000000000000602082015250565b7f4f6e6c792070617469656e742063616e2076696577207468656972206d65646960008201527f63616c20686973746f7279000000000000000000000000000000000000000000602082015250565b7f50617469656e74206e6f7420666f756e64000000000000000000000000000000600082015250565b7f4f6e6c792061646d696e2063616e20706572666f726d2074686973206163746960008201527f6f6e000000000000000000000000000000000000000000000000000000000000602082015250565b7f4f6e6c79206f776e65722063616e20706572666f726d2074686973206163746960008201527f6f6e000000000000000000000000000000000000000000000000000000000000602082015250565b61190e8161164e565b811461191957600080fd5b5056fea26469706673582212201edaf204ef26bc0f8f6b397e4e95005fc7337e1617f4e94224ac6a1e1ef0290364736f6c63430008040033","opcodes":"PUSH1 0x80 PUSH1 0x40 MSTORE CALLVALUE DUP1 ISZERO PUSH2 0x10 JUMPI PUSH1 0x0 DUP1 REVERT JUMPDEST POP CALLER PUSH1 0x0 DUP1 PUSH2 0x100 EXP DUP2 SLOAD DUP2 PUSH20 0xFFFFFFFFFFFFFFFFFFFFFFFFFFFFFFFFFFFFFFFF MUL NOT AND SWAP1 DUP4 PUSH20 0xFFFFFFFFFFFFFFFFFFFFFFFFFFFFFFFFFFFFFFFF AND MUL OR SWAP1 SSTORE POP PUSH2 0x1952 DUP1 PUSH2 0x60 PUSH1 0x0 CODECOPY PUSH1 0x0 RETURN INVALID PUSH1 0x80 PUSH1 0x40 MSTORE CALLVALUE DUP1 ISZERO PUSH2 0x10 JUMPI PUSH1 0x0 DUP1 REVERT JUMPDEST POP PUSH1 0x4 CALLDATASIZE LT PUSH2 0x93 JUMPI PUSH1 0x0 CALLDATALOAD PUSH1 0xE0 SHR DUP1 PUSH4 0x4780468F GT PUSH2 0x66 JUMPI DUP1 PUSH4 0x4780468F EQ PUSH2 0x130 JUMPI DUP1 PUSH4 0x70480275 EQ PUSH2 0x14C JUMPI DUP1 PUSH4 0x8DA5CB5B EQ PUSH2 0x168 JUMPI DUP1 PUSH4 0xA9583C22 EQ PUSH2 0x186 JUMPI DUP1 PUSH4 0xC6009D84 EQ PUSH2 0x1B6 JUMPI PUSH2 0x93 JUMP JUMPDEST DUP1 PUSH4 0x1214570A EQ PUSH2 0x98 JUMPI DUP1 PUSH4 0x215FD7E7 EQ PUSH2 0xC8 JUMPI DUP1 PUSH4 0x29CF54A3 EQ PUSH2 0xE4 JUMPI DUP1 PUSH4 0x429B62E5 EQ PUSH2 0x100 JUMPI JUMPDEST PUSH1 0x0 DUP1 REVERT JUMPDEST PUSH2 0xB2 PUSH1 0x4 DUP1 CALLDATASIZE SUB DUP2 ADD SWAP1 PUSH2 0xAD SWAP2 SWAP1 PUSH2 0xFD4 JUMP JUMPDEST PUSH2 0x1ED JUMP JUMPDEST PUSH1 0x40 MLOAD PUSH2 0xBF SWAP2 SWAP1 PUSH2 0x140D JUMP JUMPDEST PUSH1 0x40 MLOAD DUP1 SWAP2 SUB SWAP1 RETURN JUMPDEST PUSH2 0xE2 PUSH1 0x4 DUP1 CALLDATASIZE SUB DUP2 ADD SWAP1 PUSH2 0xDD SWAP2 SWAP1 PUSH2 0x1015 JUMP JUMPDEST PUSH2 0x3C1 JUMP JUMPDEST STOP JUMPDEST PUSH2 0xFE PUSH1 0x4 DUP1 CALLDATASIZE SUB DUP2 ADD SWAP1 PUSH2 0xF9 SWAP2 SWAP1 PUSH2 0x1081 JUMP JUMPDEST PUSH2 0x531 JUMP JUMPDEST STOP JUMPDEST PUSH2 0x11A PUSH1 0x4 DUP1 CALLDATASIZE SUB DUP2 ADD SWAP1 PUSH2 0x115 SWAP2 SWAP1 PUSH2 0xFAB JUMP JUMPDEST PUSH2 0x749 JUMP JUMPDEST PUSH1 0x40 MLOAD PUSH2 0x127 SWAP2 SWAP1 PUSH2 0x13F2 JUMP JUMPDEST PUSH1 0x40 MLOAD DUP1 SWAP2 SUB SWAP1 RETURN JUMPDEST PUSH2 0x14A PUSH1 0x4 DUP1 CALLDATASIZE SUB DUP2 ADD SWAP1 PUSH2 0x145 SWAP2 SWAP1 PUSH2 0xFAB JUMP JUMPDEST PUSH2 0x769 JUMP JUMPDEST STOP JUMPDEST PUSH2 0x166 PUSH1 0x4 DUP1 CALLDATASIZE SUB DUP2 ADD SWAP1 PUSH2 0x161 SWAP2 SWAP1 PUSH2 0xFAB JUMP JUMPDEST PUSH2 0x889 JUMP JUMPDEST STOP JUMPDEST PUSH2 0x170 PUSH2 0x9A9 JUMP JUMPDEST PUSH1 0x40 MLOAD PUSH2 0x17D SWAP2 SWAP1 PUSH2 0x13D7 JUMP JUMPDEST PUSH1 0x40 MLOAD DUP1 SWAP2 SUB SWAP1 RETURN JUMPDEST PUSH2 0x1A0 PUSH1 0x4 DUP1 CALLDATASIZE SUB DUP2 ADD SWAP1 PUSH2 0x19B SWAP2 SWAP1 PUSH2 0xFAB JUMP JUMPDEST PUSH2 0x9CD JUMP JUMPDEST PUSH1 0x40 MLOAD PUSH2 0x1AD SWAP2 SWAP1 PUSH2 0x13F2 JUMP JUMPDEST PUSH1 0x40 MLOAD DUP1 SWAP2 SUB SWAP1 RETURN JUMPDEST PUSH2 0x1D0 PUSH1 0x4 DUP1 CALLDATASIZE SUB DUP2 ADD SWAP1 PUSH2 0x1CB SWAP2 SWAP1 PUSH2 0xFD4 JUMP JUMPDEST PUSH2 0x9ED JUMP JUMPDEST PUSH1 0x40 MLOAD PUSH2 0x1E4 SWAP9 SWAP8 SWAP7 SWAP6 SWAP5 SWAP4 SWAP3 SWAP2 SWAP1 PUSH2 0x1466 JUMP JUMPDEST PUSH1 0x40 MLOAD DUP1 SWAP2 SUB SWAP1 RETURN JUMPDEST PUSH1 0x60 DUP2 DUP1 PUSH1 0x40 MLOAD PUSH1 0x20 ADD PUSH2 0x201 SWAP2 SWAP1 PUSH2 0x13A9 JUMP JUMPDEST PUSH1 0x40 MLOAD PUSH1 0x20 DUP2 DUP4 SUB SUB DUP2 MSTORE SWAP1 PUSH1 0x40 MSTORE DUP1 MLOAD SWAP1 PUSH1 0x20 ADD KECCAK256 PUSH1 0x1 DUP3 PUSH1 0x40 MLOAD PUSH2 0x227 SWAP2 SWAP1 PUSH2 0x13A9 JUMP JUMPDEST SWAP1 DUP2 MSTORE PUSH1 0x20 ADD PUSH1 0x40 MLOAD DUP1 SWAP2 SUB SWAP1 KECCAK256 PUSH1 0x0 ADD PUSH1 0x40 MLOAD PUSH1 0x20 ADD PUSH2 0x248 SWAP2 SWAP1 PUSH2 0x13C0 JUMP JUMPDEST PUSH1 0x40 MLOAD PUSH1 0x20 DUP2 DUP4 SUB SUB DUP2 MSTORE SWAP1 PUSH1 0x40 MSTORE DUP1 MLOAD SWAP1 PUSH1 0x20 ADD KECCAK256 EQ PUSH2 0x29E JUMPI PUSH1 0x40 MLOAD PUSH32 0x8C379A000000000000000000000000000000000000000000000000000000000 DUP2 MSTORE PUSH1 0x4 ADD PUSH2 0x295 SWAP1 PUSH2 0x153C JUMP JUMPDEST PUSH1 0x40 MLOAD DUP1 SWAP2 SUB SWAP1 REVERT JUMPDEST PUSH1 0x0 PUSH1 0x1 DUP5 PUSH1 0x40 MLOAD PUSH2 0x2B0 SWAP2 SWAP1 PUSH2 0x13A9 JUMP JUMPDEST SWAP1 DUP2 MSTORE PUSH1 0x20 ADD PUSH1 0x40 MLOAD DUP1 SWAP2 SUB SWAP1 KECCAK256 PUSH1 0x0 ADD DUP1 SLOAD PUSH2 0x2CC SWAP1 PUSH2 0x16CE JUMP JUMPDEST SWAP1 POP EQ ISZERO PUSH2 0x30F JUMPI PUSH1 0x40 MLOAD PUSH32 0x8C379A000000000000000000000000000000000000000000000000000000000 DUP2 MSTORE PUSH1 0x4 ADD PUSH2 0x306 SWAP1 PUSH2 0x155C JUMP JUMPDEST PUSH1 0x40 MLOAD DUP1 SWAP2 SUB SWAP1 REVERT JUMPDEST PUSH1 0x1 DUP4 PUSH1 0x40 MLOAD PUSH2 0x31F SWAP2 SWAP1 PUSH2 0x13A9 JUMP JUMPDEST SWAP1 DUP2 MSTORE PUSH1 0x20 ADD PUSH1 0x40 MLOAD DUP1 SWAP2 SUB SWAP1 KECCAK256 PUSH1 0x6 ADD DUP1 SLOAD PUSH2 0x33B SWAP1 PUSH2 0x16CE JUMP JUMPDEST DUP1 PUSH1 0x1F ADD PUSH1 0x20 DUP1 SWAP2 DIV MUL PUSH1 0x20 ADD PUSH1 0x40 MLOAD SWAP1 DUP2 ADD PUSH1 0x40 MSTORE DUP1 SWAP3 SWAP2 SWAP1 DUP2 DUP2 MSTORE PUSH1 0x20 ADD DUP3 DUP1 SLOAD PUSH2 0x367 SWAP1 PUSH2 0x16CE JUMP JUMPDEST DUP1 ISZERO PUSH2 0x3B4 JUMPI DUP1 PUSH1 0x1F LT PUSH2 0x389 JUMPI PUSH2 0x100 DUP1 DUP4 SLOAD DIV MUL DUP4 MSTORE SWAP2 PUSH1 0x20 ADD SWAP2 PUSH2 0x3B4 JUMP JUMPDEST DUP3 ADD SWAP2 SWAP1 PUSH1 0x0 MSTORE PUSH1 0x20 PUSH1 0x0 KECCAK256 SWAP1 JUMPDEST DUP2 SLOAD DUP2 MSTORE SWAP1 PUSH1 0x1 ADD SWAP1 PUSH1 0x20 ADD DUP1 DUP4 GT PUSH2 0x397 JUMPI DUP3 SWAP1 SUB PUSH1 0x1F AND DUP3 ADD SWAP2 JUMPDEST POP POP POP POP POP SWAP2 POP POP SWAP2 SWAP1 POP JUMP JUMPDEST PUSH1 0x2 PUSH1 0x0 CALLER PUSH20 0xFFFFFFFFFFFFFFFFFFFFFFFFFFFFFFFFFFFFFFFF AND PUSH20 0xFFFFFFFFFFFFFFFFFFFFFFFFFFFFFFFFFFFFFFFF AND DUP2 MSTORE PUSH1 0x20 ADD SWAP1 DUP2 MSTORE PUSH1 0x20 ADD PUSH1 0x0 KECCAK256 PUSH1 0x0 SWAP1 SLOAD SWAP1 PUSH2 0x100 EXP SWAP1 DIV PUSH1 0xFF AND PUSH2 0x44D JUMPI PUSH1 0x40 MLOAD PUSH32 0x8C379A000000000000000000000000000000000000000000000000000000000 DUP2 MSTORE PUSH1 0x4 ADD PUSH2 0x444 SWAP1 PUSH2 0x151C JUMP JUMPDEST PUSH1 0x40 MLOAD DUP1 SWAP2 SUB SWAP1 REVERT JUMPDEST PUSH1 0x0 PUSH1 0x1 DUP4 PUSH1 0x40 MLOAD PUSH2 0x45F SWAP2 SWAP1 PUSH2 0x13A9 JUMP JUMPDEST SWAP1 DUP2 MSTORE PUSH1 0x20 ADD PUSH1 0x40 MLOAD DUP1 SWAP2 SUB SWAP1 KECCAK256 PUSH1 0x0 ADD DUP1 SLOAD PUSH2 0x47B SWAP1 PUSH2 0x16CE JUMP JUMPDEST SWAP1 POP EQ ISZERO PUSH2 0x4BE JUMPI PUSH1 0x40 MLOAD PUSH32 0x8C379A000000000000000000000000000000000000000000000000000000000 DUP2 MSTORE PUSH1 0x4 ADD PUSH2 0x4B5 SWAP1 PUSH2 0x155C JUMP JUMPDEST PUSH1 0x40 MLOAD DUP1 SWAP2 SUB SWAP1 REVERT JUMPDEST DUP1 PUSH1 0x1 DUP4 PUSH1 0x40 MLOAD PUSH2 0x4CF SWAP2 SWAP1 PUSH2 0x13A9 JUMP JUMPDEST SWAP1 DUP2 MSTORE PUSH1 0x20 ADD PUSH1 0x40 MLOAD DUP1 SWAP2 SUB SWAP1 KECCAK256 PUSH1 0x6 ADD SWAP1 DUP1 MLOAD SWAP1 PUSH1 0x20 ADD SWAP1 PUSH2 0x4F3 SWAP3 SWAP2 SWAP1 PUSH2 0xE8B JUMP JUMPDEST POP PUSH32 0xD31B335F901709F0CCD4B82B7BB6E539ED7D8830FAB725B2848E4EC4F8AC7514 DUP3 DUP3 PUSH1 0x40 MLOAD PUSH2 0x525 SWAP3 SWAP2 SWAP1 PUSH2 0x142F JUMP JUMPDEST PUSH1 0x40 MLOAD DUP1 SWAP2 SUB SWAP1 LOG1 POP POP JUMP JUMPDEST PUSH1 0x3 PUSH1 0x0 CALLER PUSH20 0xFFFFFFFFFFFFFFFFFFFFFFFFFFFFFFFFFFFFFFFF AND PUSH20 0xFFFFFFFFFFFFFFFFFFFFFFFFFFFFFFFFFFFFFFFF AND DUP2 MSTORE PUSH1 0x20 ADD SWAP1 DUP2 MSTORE PUSH1 0x20 ADD PUSH1 0x0 KECCAK256 PUSH1 0x0 SWAP1 SLOAD SWAP1 PUSH2 0x100 EXP SWAP1 DIV PUSH1 0xFF AND PUSH2 0x5BD JUMPI PUSH1 0x40 MLOAD PUSH32 0x8C379A000000000000000000000000000000000000000000000000000000000 DUP2 MSTORE PUSH1 0x4 ADD PUSH2 0x5B4 SWAP1 PUSH2 0x157C JUMP JUMPDEST PUSH1 0x40 MLOAD DUP1 SWAP2 SUB SWAP1 REVERT JUMPDEST PUSH1 0x0 PUSH1 0x40 MLOAD DUP1 PUSH2 0x100 ADD PUSH1 0x40 MSTORE DUP1 DUP11 DUP2 MSTORE PUSH1 0x20 ADD DUP10 DUP2 MSTORE PUSH1 0x20 ADD DUP9 DUP2 MSTORE PUSH1 0x20 ADD DUP8 DUP2 MSTORE PUSH1 0x20 ADD DUP7 DUP2 MSTORE PUSH1 0x20 ADD DUP6 DUP2 MSTORE PUSH1 0x20 ADD DUP5 DUP2 MSTORE PUSH1 0x20 ADD DUP4 DUP2 MSTORE POP SWAP1 POP DUP1 PUSH1 0x1 DUP11 PUSH1 0x40 MLOAD PUSH2 0x60C SWAP2 SWAP1 PUSH2 0x13A9 JUMP JUMPDEST SWAP1 DUP2 MSTORE PUSH1 0x20 ADD PUSH1 0x40 MLOAD DUP1 SWAP2 SUB SWAP1 KECCAK256 PUSH1 0x0 DUP3 ADD MLOAD DUP2 PUSH1 0x0 ADD SWAP1 DUP1 MLOAD SWAP1 PUSH1 0x20 ADD SWAP1 PUSH2 0x636 SWAP3 SWAP2 SWAP1 PUSH2 0xE8B JUMP JUMPDEST POP PUSH1 0x20 DUP3 ADD MLOAD DUP2 PUSH1 0x1 ADD SWAP1 DUP1 MLOAD SWAP1 PUSH1 0x20 ADD SWAP1 PUSH2 0x653 SWAP3 SWAP2 SWAP1 PUSH2 0xE8B JUMP JUMPDEST POP PUSH1 0x40 DUP3 ADD MLOAD DUP2 PUSH1 0x2 ADD SWAP1 DUP1 MLOAD SWAP1 PUSH1 0x20 ADD SWAP1 PUSH2 0x670 SWAP3 SWAP2 SWAP1 PUSH2 0xE8B JUMP JUMPDEST POP PUSH1 0x60 DUP3 ADD MLOAD DUP2 PUSH1 0x3 ADD SWAP1 DUP1 MLOAD SWAP1 PUSH1 0x20 ADD SWAP1 PUSH2 0x68D SWAP3 SWAP2 SWAP1 PUSH2 0xE8B JUMP JUMPDEST POP PUSH1 0x80 DUP3 ADD MLOAD DUP2 PUSH1 0x4 ADD SWAP1 DUP1 MLOAD SWAP1 PUSH1 0x20 ADD SWAP1 PUSH2 0x6AA SWAP3 SWAP2 SWAP1 PUSH2 0xE8B JUMP JUMPDEST POP PUSH1 0xA0 DUP3 ADD MLOAD DUP2 PUSH1 0x5 ADD SWAP1 DUP1 MLOAD SWAP1 PUSH1 0x20 ADD SWAP1 PUSH2 0x6C7 SWAP3 SWAP2 SWAP1 PUSH2 0xE8B JUMP JUMPDEST POP PUSH1 0xC0 DUP3 ADD MLOAD DUP2 PUSH1 0x6 ADD SWAP1 DUP1 MLOAD SWAP1 PUSH1 0x20 ADD SWAP1 PUSH2 0x6E4 SWAP3 SWAP2 SWAP1 PUSH2 0xE8B JUMP JUMPDEST POP PUSH1 0xE0 DUP3 ADD MLOAD DUP2 PUSH1 0x7 ADD SWAP1 DUP1 MLOAD SWAP1 PUSH1 0x20 ADD SWAP1 PUSH2 0x701 SWAP3 SWAP2 SWAP1 PUSH2 0xE8B JUMP JUMPDEST POP SWAP1 POP POP PUSH32 0xF57ECEE040EDFBD184404D12D5F2F7343575ADD2BA648066A9A501FA19BF3A27 DUP10 DUP10 PUSH1 0x40 MLOAD PUSH2 0x736 SWAP3 SWAP2 SWAP1 PUSH2 0x142F JUMP JUMPDEST PUSH1 0x40 MLOAD DUP1 SWAP2 SUB SWAP1 LOG1 POP POP POP POP POP POP POP POP POP JUMP JUMPDEST PUSH1 0x3 PUSH1 0x20 MSTORE DUP1 PUSH1 0x0 MSTORE PUSH1 0x40 PUSH1 0x0 KECCAK256 PUSH1 0x0 SWAP2 POP SLOAD SWAP1 PUSH2 0x100 EXP SWAP1 DIV PUSH1 0xFF AND DUP2 JUMP JUMPDEST PUSH1 0x0 DUP1 SLOAD SWAP1 PUSH2 0x100 EXP SWAP1 DIV PUSH20 0xFFFFFFFFFFFFFFFFFFFFFFFFFFFFFFFFFFFFFFFF AND PUSH20 0xFFFFFFFFFFFFFFFFFFFFFFFFFFFFFFFFFFFFFFFF AND CALLER PUSH20 0xFFFFFFFFFFFFFFFFFFFFFFFFFFFFFFFFFFFFFFFF AND EQ PUSH2 0x7F7 JUMPI PUSH1 0x40 MLOAD PUSH32 0x8C379A000000000000000000000000000000000000000000000000000000000 DUP2 MSTORE PUSH1 0x4 ADD PUSH2 0x7EE SWAP1 PUSH2 0x159C JUMP JUMPDEST PUSH1 0x40 MLOAD DUP1 SWAP2 SUB SWAP1 REVERT JUMPDEST PUSH1 0x1 PUSH1 0x2 PUSH1 0x0 DUP4 PUSH20 0xFFFFFFFFFFFFFFFFFFFFFFFFFFFFFFFFFFFFFFFF AND PUSH20 0xFFFFFFFFFFFFFFFFFFFFFFFFFFFFFFFFFFFFFFFF AND DUP2 MSTORE PUSH1 0x20 ADD SWAP1 DUP2 MSTORE PUSH1 0x20 ADD PUSH1 0x0 KECCAK256 PUSH1 0x0 PUSH2 0x100 EXP DUP2 SLOAD DUP2 PUSH1 0xFF MUL NOT AND SWAP1 DUP4 ISZERO ISZERO MUL OR SWAP1 SSTORE POP PUSH32 0x69908B2E63170AA89EF89719BBE3B4C92CCCC38653968AB25F4464EFF7C28AC8 DUP2 PUSH1 0x40 MLOAD PUSH2 0x87E SWAP2 SWAP1 PUSH2 0x13D7 JUMP JUMPDEST PUSH1 0x40 MLOAD DUP1 SWAP2 SUB SWAP1 LOG1 POP JUMP JUMPDEST PUSH1 0x0 DUP1 SLOAD SWAP1 PUSH2 0x100 EXP SWAP1 DIV PUSH20 0xFFFFFFFFFFFFFFFFFFFFFFFFFFFFFFFFFFFFFFFF AND PUSH20 0xFFFFFFFFFFFFFFFFFFFFFFFFFFFFFFFFFFFFFFFF AND CALLER PUSH20 0xFFFFFFFFFFFFFFFFFFFFFFFFFFFFFFFFFFFFFFFF AND EQ PUSH2 0x917 JUMPI PUSH1 0x40 MLOAD PUSH32 0x8C379A000000000000000000000000000000000000000000000000000000000 DUP2 MSTORE PUSH1 0x4 ADD PUSH2 0x90E SWAP1 PUSH2 0x159C JUMP JUMPDEST PUSH1 0x40 MLOAD DUP1 SWAP2 SUB SWAP1 REVERT JUMPDEST PUSH1 0x1 PUSH1 0x3 PUSH1 0x0 DUP4 PUSH20 0xFFFFFFFFFFFFFFFFFFFFFFFFFFFFFFFFFFFFFFFF AND PUSH20 0xFFFFFFFFFFFFFFFFFFFFFFFFFFFFFFFFFFFFFFFF AND DUP2 MSTORE PUSH1 0x20 ADD SWAP1 DUP2 MSTORE PUSH1 0x20 ADD PUSH1 0x0 KECCAK256 PUSH1 0x0 PUSH2 0x100 EXP DUP2 SLOAD DUP2 PUSH1 0xFF MUL NOT AND SWAP1 DUP4 ISZERO ISZERO MUL OR SWAP1 SSTORE POP PUSH32 0x44D6D25963F097AD14F29F06854A01F575648A1EF82F30E562CCD3889717E339 DUP2 PUSH1 0x40 MLOAD PUSH2 0x99E SWAP2 SWAP1 PUSH2 0x13D7 JUMP JUMPDEST PUSH1 0x40 MLOAD DUP1 SWAP2 SUB SWAP1 LOG1 POP JUMP JUMPDEST PUSH1 0x0 DUP1 SLOAD SWAP1 PUSH2 0x100 EXP SWAP1 DIV PUSH20 0xFFFFFFFFFFFFFFFFFFFFFFFFFFFFFFFFFFFFFFFF AND DUP2 JUMP JUMPDEST PUSH1 0x2 PUSH1 0x20 MSTORE DUP1 PUSH1 0x0 MSTORE PUSH1 0x40 PUSH1 0x0 KECCAK256 PUSH1 0x0 SWAP2 POP SLOAD SWAP1 PUSH2 0x100 EXP SWAP1 DIV PUSH1 0xFF AND DUP2 JUMP JUMPDEST PUSH1 0x1 DUP2 DUP1 MLOAD PUSH1 0x20 DUP2 ADD DUP3 ADD DUP1 MLOAD DUP5 DUP3 MSTORE PUSH1 0x20 DUP4 ADD PUSH1 0x20 DUP6 ADD KECCAK256 DUP2 DUP4 MSTORE DUP1 SWAP6 POP POP POP POP POP POP PUSH1 0x0 SWAP2 POP SWAP1 POP DUP1 PUSH1 0x0 ADD DUP1 SLOAD PUSH2 0xA26 SWAP1 PUSH2 0x16CE JUMP JUMPDEST DUP1 PUSH1 0x1F ADD PUSH1 0x20 DUP1 SWAP2 DIV MUL PUSH1 0x20 ADD PUSH1 0x40 MLOAD SWAP1 DUP2 ADD PUSH1 0x40 MSTORE DUP1 SWAP3 SWAP2 SWAP1 DUP2 DUP2 MSTORE PUSH1 0x20 ADD DUP3 DUP1 SLOAD PUSH2 0xA52 SWAP1 PUSH2 0x16CE JUMP JUMPDEST DUP1 ISZERO PUSH2 0xA9F JUMPI DUP1 PUSH1 0x1F LT PUSH2 0xA74 JUMPI PUSH2 0x100 DUP1 DUP4 SLOAD DIV MUL DUP4 MSTORE SWAP2 PUSH1 0x20 ADD SWAP2 PUSH2 0xA9F JUMP JUMPDEST DUP3 ADD SWAP2 SWAP1 PUSH1 0x0 MSTORE PUSH1 0x20 PUSH1 0x0 KECCAK256 SWAP1 JUMPDEST DUP2 SLOAD DUP2 MSTORE SWAP1 PUSH1 0x1 ADD SWAP1 PUSH1 0x20 ADD DUP1 DUP4 GT PUSH2 0xA82 JUMPI DUP3 SWAP1 SUB PUSH1 0x1F AND DUP3 ADD SWAP2 JUMPDEST POP POP POP POP POP SWAP1 DUP1 PUSH1 0x1 ADD DUP1 SLOAD PUSH2 0xAB4 SWAP1 PUSH2 0x16CE JUMP JUMPDEST DUP1 PUSH1 0x1F ADD PUSH1 0x20 DUP1 SWAP2 DIV MUL PUSH1 0x20 ADD PUSH1 0x40 MLOAD SWAP1 DUP2 ADD PUSH1 0x40 MSTORE DUP1 SWAP3 SWAP2 SWAP1 DUP2 DUP2 MSTORE PUSH1 0x20 ADD DUP3 DUP1 SLOAD PUSH2 0xAE0 SWAP1 PUSH2 0x16CE JUMP JUMPDEST DUP1 ISZERO PUSH2 0xB2D JUMPI DUP1 PUSH1 0x1F LT PUSH2 0xB02 JUMPI PUSH2 0x100 DUP1 DUP4 SLOAD DIV MUL DUP4 MSTORE SWAP2 PUSH1 0x20 ADD SWAP2 PUSH2 0xB2D JUMP JUMPDEST DUP3 ADD SWAP2 SWAP1 PUSH1 0x0 MSTORE PUSH1 0x20 PUSH1 0x0 KECCAK256 SWAP1 JUMPDEST DUP2 SLOAD DUP2 MSTORE SWAP1 PUSH1 0x1 ADD SWAP1 PUSH1 0x20 ADD DUP1 DUP4 GT PUSH2 0xB10 JUMPI DUP3 SWAP1 SUB PUSH1 0x1F AND DUP3 ADD SWAP2 JUMPDEST POP POP POP POP POP SWAP1 DUP1 PUSH1 0x2 ADD DUP1 SLOAD PUSH2 0xB42 SWAP1 PUSH2 0x16CE JUMP JUMPDEST DUP1 PUSH1 0x1F ADD PUSH1 0x20 DUP1 SWAP2 DIV MUL PUSH1 0x20 ADD PUSH1 0x40 MLOAD SWAP1 DUP2 ADD PUSH1 0x40 MSTORE DUP1 SWAP3 SWAP2 SWAP1 DUP2 DUP2 MSTORE PUSH1 0x20 ADD DUP3 DUP1 SLOAD PUSH2 0xB6E SWAP1 PUSH2 0x16CE JUMP JUMPDEST DUP1 ISZERO PUSH2 0xBBB JUMPI DUP1 PUSH1 0x1F LT PUSH2 0xB90 JUMPI PUSH2 0x100 DUP1 DUP4 SLOAD DIV MUL DUP4 MSTORE SWAP2 PUSH1 0x20 ADD SWAP2 PUSH2 0xBBB JUMP JUMPDEST DUP3 ADD SWAP2 SWAP1 PUSH1 0x0 MSTORE PUSH1 0x20 PUSH1 0x0 KECCAK256 SWAP1 JUMPDEST DUP2 SLOAD DUP2 MSTORE SWAP1 PUSH1 0x1 ADD SWAP1 PUSH1 0x20 ADD DUP1 DUP4 GT PUSH2 0xB9E JUMPI DUP3 SWAP1 SUB PUSH1 0x1F AND DUP3 ADD SWAP2 JUMPDEST POP POP POP POP POP SWAP1 DUP1 PUSH1 0x3 ADD DUP1 SLOAD PUSH2 0xBD0 SWAP1 PUSH2 0x16CE JUMP JUMPDEST DUP1 PUSH1 0x1F ADD PUSH1 0x20 DUP1 SWAP2 DIV MUL PUSH1 0x20 ADD PUSH1 0x40 MLOAD SWAP1 DUP2 ADD PUSH1 0x40 MSTORE DUP1 SWAP3 SWAP2 SWAP1 DUP2 DUP2 MSTORE PUSH1 0x20 ADD DUP3 DUP1 SLOAD PUSH2 0xBFC SWAP1 PUSH2 0x16CE JUMP JUMPDEST DUP1 ISZERO PUSH2 0xC49 JUMPI DUP1 PUSH1 0x1F LT PUSH2 0xC1E JUMPI PUSH2 0x100 DUP1 DUP4 SLOAD DIV MUL DUP4 MSTORE SWAP2 PUSH1 0x20 ADD SWAP2 PUSH2 0xC49 JUMP JUMPDEST DUP3 ADD SWAP2 SWAP1 PUSH1 0x0 MSTORE PUSH1 0x20 PUSH1 0x0 KECCAK256 SWAP1 JUMPDEST DUP2 SLOAD DUP2 MSTORE SWAP1 PUSH1 0x1 ADD SWAP1 PUSH1 0x20 ADD DUP1 DUP4 GT PUSH2 0xC2C JUMPI DUP3 SWAP1 SUB PUSH1 0x1F AND DUP3 ADD SWAP2 JUMPDEST POP POP POP POP POP SWAP1 DUP1 PUSH1 0x4 ADD DUP1 SLOAD PUSH2 0xC5E SWAP1 PUSH2 0x16CE JUMP JUMPDEST DUP1 PUSH1 0x1F ADD PUSH1 0x20 DUP1 SWAP2 DIV MUL PUSH1 0x20 ADD PUSH1 0x40 MLOAD SWAP1 DUP2 ADD PUSH1 0x40 MSTORE DUP1 SWAP3 SWAP2 SWAP1 DUP2 DUP2 MSTORE PUSH1 0x20 ADD DUP3 DUP1 SLOAD PUSH2 0xC8A SWAP1 PUSH2 0x16CE JUMP JUMPDEST DUP1 ISZERO PUSH2 0xCD7 JUMPI DUP1 PUSH1 0x1F LT PUSH2 0xCAC JUMPI PUSH2 0x100 DUP1 DUP4 SLOAD DIV MUL DUP4 MSTORE SWAP2 PUSH1 0x20 ADD SWAP2 PUSH2 0xCD7 JUMP JUMPDEST DUP3 ADD SWAP2 SWAP1 PUSH1 0x0 MSTORE PUSH1 0x20 PUSH1 0x0 KECCAK256 SWAP1 JUMPDEST DUP2 SLOAD DUP2 MSTORE SWAP1 PUSH1 0x1 ADD SWAP1 PUSH1 0x20 ADD DUP1 DUP4 GT PUSH2 0xCBA JUMPI DUP3 SWAP1 SUB PUSH1 0x1F AND DUP3 ADD SWAP2 JUMPDEST POP POP POP POP POP SWAP1 DUP1 PUSH1 0x5 ADD DUP1 SLOAD PUSH2 0xCEC SWAP1 PUSH2 0x16CE JUMP JUMPDEST DUP1 PUSH1 0x1F ADD PUSH1 0x20 DUP1 SWAP2 DIV MUL PUSH1 0x20 ADD PUSH1 0x40 MLOAD SWAP1 DUP2 ADD PUSH1 0x40 MSTORE DUP1 SWAP3 SWAP2 SWAP1 DUP2 DUP2 MSTORE PUSH1 0x20 ADD DUP3 DUP1 SLOAD PUSH2 0xD18 SWAP1 PUSH2 0x16CE JUMP JUMPDEST DUP1 ISZERO PUSH2 0xD65 JUMPI DUP1 PUSH1 0x1F LT PUSH2 0xD3A JUMPI PUSH2 0x100 DUP1 DUP4 SLOAD DIV MUL DUP4 MSTORE SWAP2 PUSH1 0x20 ADD SWAP2 PUSH2 0xD65 JUMP JUMPDEST DUP3 ADD SWAP2 SWAP1 PUSH1 0x0 MSTORE PUSH1 0x20 PUSH1 0x0 KECCAK256 SWAP1 JUMPDEST DUP2 SLOAD DUP2 MSTORE SWAP1 PUSH1 0x1 ADD SWAP1 PUSH1 0x20 ADD DUP1 DUP4 GT PUSH2 0xD48 JUMPI DUP3 SWAP1 SUB PUSH1 0x1F AND DUP3 ADD SWAP2 JUMPDEST POP POP POP POP POP SWAP1 DUP1 PUSH1 0x6 ADD DUP1 SLOAD PUSH2 0xD7A SWAP1 PUSH2 0x16CE JUMP JUMPDEST DUP1 PUSH1 0x1F ADD PUSH1 0x20 DUP1 SWAP2 DIV MUL PUSH1 0x20 ADD PUSH1 0x40 MLOAD SWAP1 DUP2 ADD PUSH1 0x40 MSTORE DUP1 SWAP3 SWAP2 SWAP1 DUP2 DUP2 MSTORE PUSH1 0x20 ADD DUP3 DUP1 SLOAD PUSH2 0xDA6 SWAP1 PUSH2 0x16CE JUMP JUMPDEST DUP1 ISZERO PUSH2 0xDF3 JUMPI DUP1 PUSH1 0x1F LT PUSH2 0xDC8 JUMPI PUSH2 0x100 DUP1 DUP4 SLOAD DIV MUL DUP4 MSTORE SWAP2 PUSH1 0x20 ADD SWAP2 PUSH2 0xDF3 JUMP JUMPDEST DUP3 ADD SWAP2 SWAP1 PUSH1 0x0 MSTORE PUSH1 0x20 PUSH1 0x0 KECCAK256 SWAP1 JUMPDEST DUP2 SLOAD DUP2 MSTORE SWAP1 PUSH1 0x1 ADD SWAP1 PUSH1 0x20 ADD DUP1 DUP4 GT PUSH2 0xDD6 JUMPI DUP3 SWAP1 SUB PUSH1 0x1F AND DUP3 ADD SWAP2 JUMPDEST POP POP POP POP POP SWAP1 DUP1 PUSH1 0x7 ADD DUP1 SLOAD PUSH2 0xE08 SWAP1 PUSH2 0x16CE JUMP JUMPDEST DUP1 PUSH1 0x1F ADD PUSH1 0x20 DUP1 SWAP2 DIV MUL PUSH1 0x20 ADD PUSH1 0x40 MLOAD SWAP1 DUP2 ADD PUSH1 0x40 MSTORE DUP1 SWAP3 SWAP2 SWAP1 DUP2 DUP2 MSTORE PUSH1 0x20 ADD DUP3 DUP1 SLOAD PUSH2 0xE34 SWAP1 PUSH2 0x16CE JUMP JUMPDEST DUP1 ISZERO PUSH2 0xE81 JUMPI DUP1 PUSH1 0x1F LT PUSH2 0xE56 JUMPI PUSH2 0x100 DUP1 DUP4 SLOAD DIV MUL DUP4 MSTORE SWAP2 PUSH1 0x20 ADD SWAP2 PUSH2 0xE81 JUMP JUMPDEST DUP3 ADD SWAP2 SWAP1 PUSH1 0x0 MSTORE PUSH1 0x20 PUSH1 0x0 KECCAK256 SWAP1 JUMPDEST DUP2 SLOAD DUP2 MSTORE SWAP1 PUSH1 0x1 ADD SWAP1 PUSH1 0x20 ADD DUP1 DUP4 GT PUSH2 0xE64 JUMPI DUP3 SWAP1 SUB PUSH1 0x1F AND DUP3 ADD SWAP2 JUMPDEST POP POP POP POP POP SWAP1 POP DUP9 JUMP JUMPDEST DUP3 DUP1 SLOAD PUSH2 0xE97 SWAP1 PUSH2 0x16CE JUMP JUMPDEST SWAP1 PUSH1 0x0 MSTORE PUSH1 0x20 PUSH1 0x0 KECCAK256 SWAP1 PUSH1 0x1F ADD PUSH1 0x20 SWAP1 DIV DUP2 ADD SWAP3 DUP3 PUSH2 0xEB9 JUMPI PUSH1 0x0 DUP6 SSTORE PUSH2 0xF00 JUMP JUMPDEST DUP3 PUSH1 0x1F LT PUSH2 0xED2 JUMPI DUP1 MLOAD PUSH1 0xFF NOT AND DUP4 DUP1 ADD OR DUP6 SSTORE PUSH2 0xF00 JUMP JUMPDEST DUP3 DUP1 ADD PUSH1 0x1 ADD DUP6 SSTORE DUP3 ISZERO PUSH2 0xF00 JUMPI SWAP2 DUP3 ADD JUMPDEST DUP3 DUP2 GT ISZERO PUSH2 0xEFF JUMPI DUP3 MLOAD DUP3 SSTORE SWAP2 PUSH1 0x20 ADD SWAP2 SWAP1 PUSH1 0x1 ADD SWAP1 PUSH2 0xEE4 JUMP JUMPDEST JUMPDEST POP SWAP1 POP PUSH2 0xF0D SWAP2 SWAP1 PUSH2 0xF11 JUMP JUMPDEST POP SWAP1 JUMP JUMPDEST JUMPDEST DUP1 DUP3 GT ISZERO PUSH2 0xF2A JUMPI PUSH1 0x0 DUP2 PUSH1 0x0 SWAP1 SSTORE POP PUSH1 0x1 ADD PUSH2 0xF12 JUMP JUMPDEST POP SWAP1 JUMP JUMPDEST PUSH1 0x0 PUSH2 0xF41 PUSH2 0xF3C DUP5 PUSH2 0x15E1 JUMP JUMPDEST PUSH2 0x15BC JUMP JUMPDEST SWAP1 POP DUP3 DUP2 MSTORE PUSH1 0x20 DUP2 ADD DUP5 DUP5 DUP5 ADD GT ISZERO PUSH2 0xF59 JUMPI PUSH1 0x0 DUP1 REVERT JUMPDEST PUSH2 0xF64 DUP5 DUP3 DUP6 PUSH2 0x168C JUMP JUMPDEST POP SWAP4 SWAP3 POP POP POP JUMP JUMPDEST PUSH1 0x0 DUP2 CALLDATALOAD SWAP1 POP PUSH2 0xF7B DUP2 PUSH2 0x1905 JUMP JUMPDEST SWAP3 SWAP2 POP POP JUMP JUMPDEST PUSH1 0x0 DUP3 PUSH1 0x1F DUP4 ADD SLT PUSH2 0xF92 JUMPI PUSH1 0x0 DUP1 REVERT JUMPDEST DUP2 CALLDATALOAD PUSH2 0xFA2 DUP5 DUP3 PUSH1 0x20 DUP7 ADD PUSH2 0xF2E JUMP JUMPDEST SWAP2 POP POP SWAP3 SWAP2 POP POP JUMP JUMPDEST PUSH1 0x0 PUSH1 0x20 DUP3 DUP5 SUB SLT ISZERO PUSH2 0xFBD JUMPI PUSH1 0x0 DUP1 REVERT JUMPDEST PUSH1 0x0 PUSH2 0xFCB DUP5 DUP3 DUP6 ADD PUSH2 0xF6C JUMP JUMPDEST SWAP2 POP POP SWAP3 SWAP2 POP POP JUMP JUMPDEST PUSH1 0x0 PUSH1 0x20 DUP3 DUP5 SUB SLT ISZERO PUSH2 0xFE6 JUMPI PUSH1 0x0 DUP1 REVERT JUMPDEST PUSH1 0x0 DUP3 ADD CALLDATALOAD PUSH8 0xFFFFFFFFFFFFFFFF DUP2 GT ISZERO PUSH2 0x1000 JUMPI PUSH1 0x0 DUP1 REVERT JUMPDEST PUSH2 0x100C DUP5 DUP3 DUP6 ADD PUSH2 0xF81 JUMP JUMPDEST SWAP2 POP POP SWAP3 SWAP2 POP POP JUMP JUMPDEST PUSH1 0x0 DUP1 PUSH1 0x40 DUP4 DUP6 SUB SLT ISZERO PUSH2 0x1028 JUMPI PUSH1 0x0 DUP1 REVERT JUMPDEST PUSH1 0x0 DUP4 ADD CALLDATALOAD PUSH8 0xFFFFFFFFFFFFFFFF DUP2 GT ISZERO PUSH2 0x1042 JUMPI PUSH1 0x0 DUP1 REVERT JUMPDEST PUSH2 0x104E DUP6 DUP3 DUP7 ADD PUSH2 0xF81 JUMP JUMPDEST SWAP3 POP POP PUSH1 0x20 DUP4 ADD CALLDATALOAD PUSH8 0xFFFFFFFFFFFFFFFF DUP2 GT ISZERO PUSH2 0x106B JUMPI PUSH1 0x0 DUP1 REVERT JUMPDEST PUSH2 0x1077 DUP6 DUP3 DUP7 ADD PUSH2 0xF81 JUMP JUMPDEST SWAP2 POP POP SWAP3 POP SWAP3 SWAP1 POP JUMP JUMPDEST PUSH1 0x0 DUP1 PUSH1 0x0 DUP1 PUSH1 0x0 DUP1 PUSH1 0x0 DUP1 PUSH2 0x100 DUP10 DUP12 SUB SLT ISZERO PUSH2 0x109E JUMPI PUSH1 0x0 DUP1 REVERT JUMPDEST PUSH1 0x0 DUP10 ADD CALLDATALOAD PUSH8 0xFFFFFFFFFFFFFFFF DUP2 GT ISZERO PUSH2 0x10B8 JUMPI PUSH1 0x0 DUP1 REVERT JUMPDEST PUSH2 0x10C4 DUP12 DUP3 DUP13 ADD PUSH2 0xF81 JUMP JUMPDEST SWAP9 POP POP PUSH1 0x20 DUP10 ADD CALLDATALOAD PUSH8 0xFFFFFFFFFFFFFFFF DUP2 GT ISZERO PUSH2 0x10E1 JUMPI PUSH1 0x0 DUP1 REVERT JUMPDEST PUSH2 0x10ED DUP12 DUP3 DUP13 ADD PUSH2 0xF81 JUMP JUMPDEST SWAP8 POP POP PUSH1 0x40 DUP10 ADD CALLDATALOAD PUSH8 0xFFFFFFFFFFFFFFFF DUP2 GT ISZERO PUSH2 0x110A JUMPI PUSH1 0x0 DUP1 REVERT JUMPDEST PUSH2 0x1116 DUP12 DUP3 DUP13 ADD PUSH2 0xF81 JUMP JUMPDEST SWAP7 POP POP PUSH1 0x60 DUP10 ADD CALLDATALOAD PUSH8 0xFFFFFFFFFFFFFFFF DUP2 GT ISZERO PUSH2 0x1133 JUMPI PUSH1 0x0 DUP1 REVERT JUMPDEST PUSH2 0x113F DUP12 DUP3 DUP13 ADD PUSH2 0xF81 JUMP JUMPDEST SWAP6 POP POP PUSH1 0x80 DUP10 ADD CALLDATALOAD PUSH8 0xFFFFFFFFFFFFFFFF DUP2 GT ISZERO PUSH2 0x115C JUMPI PUSH1 0x0 DUP1 REVERT JUMPDEST PUSH2 0x1168 DUP12 DUP3 DUP13 ADD PUSH2 0xF81 JUMP JUMPDEST SWAP5 POP POP PUSH1 0xA0 DUP10 ADD CALLDATALOAD PUSH8 0xFFFFFFFFFFFFFFFF DUP2 GT ISZERO PUSH2 0x1185 JUMPI PUSH1 0x0 DUP1 REVERT JUMPDEST PUSH2 0x1191 DUP12 DUP3 DUP13 ADD PUSH2 0xF81 JUMP JUMPDEST SWAP4 POP POP PUSH1 0xC0 DUP10 ADD CALLDATALOAD PUSH8 0xFFFFFFFFFFFFFFFF DUP2 GT ISZERO PUSH2 0x11AE JUMPI PUSH1 0x0 DUP1 REVERT JUMPDEST PUSH2 0x11BA DUP12 DUP3 DUP13 ADD PUSH2 0xF81 JUMP JUMPDEST SWAP3 POP POP PUSH1 0xE0 DUP10 ADD CALLDATALOAD PUSH8 0xFFFFFFFFFFFFFFFF DUP2 GT ISZERO PUSH2 0x11D7 JUMPI PUSH1 0x0 DUP1 REVERT JUMPDEST PUSH2 0x11E3 DUP12 DUP3 DUP13 ADD PUSH2 0xF81 JUMP JUMPDEST SWAP2 POP POP SWAP3 SWAP6 SWAP9 POP SWAP3 SWAP6 SWAP9 SWAP1 SWAP4 SWAP7 POP JUMP JUMPDEST PUSH2 0x11FC DUP2 PUSH2 0x164E JUMP JUMPDEST DUP3 MSTORE POP POP JUMP JUMPDEST PUSH2 0x120B DUP2 PUSH2 0x1660 JUMP JUMPDEST DUP3 MSTORE POP POP JUMP JUMPDEST PUSH1 0x0 PUSH2 0x121C DUP3 PUSH2 0x1627 JUMP JUMPDEST PUSH2 0x1226 DUP2 DUP6 PUSH2 0x1632 JUMP JUMPDEST SWAP4 POP PUSH2 0x1236 DUP2 DUP6 PUSH1 0x20 DUP7 ADD PUSH2 0x169B JUMP JUMPDEST PUSH2 0x123F DUP2 PUSH2 0x178F JUMP JUMPDEST DUP5 ADD SWAP2 POP POP SWAP3 SWAP2 POP POP JUMP JUMPDEST PUSH1 0x0 PUSH2 0x1255 DUP3 PUSH2 0x1627 JUMP JUMPDEST PUSH2 0x125F DUP2 DUP6 PUSH2 0x1643 JUMP JUMPDEST SWAP4 POP PUSH2 0x126F DUP2 DUP6 PUSH1 0x20 DUP7 ADD PUSH2 0x169B JUMP JUMPDEST DUP1 DUP5 ADD SWAP2 POP POP SWAP3 SWAP2 POP POP JUMP JUMPDEST PUSH1 0x0 DUP2 SLOAD PUSH2 0x1288 DUP2 PUSH2 0x16CE JUMP JUMPDEST PUSH2 0x1292 DUP2 DUP7 PUSH2 0x1643 JUMP JUMPDEST SWAP5 POP PUSH1 0x1 DUP3 AND PUSH1 0x0 DUP2 EQ PUSH2 0x12AD JUMPI PUSH1 0x1 DUP2 EQ PUSH2 0x12BE JUMPI PUSH2 0x12F1 JUMP JUMPDEST PUSH1 0xFF NOT DUP4 AND DUP7 MSTORE DUP2 DUP7 ADD SWAP4 POP PUSH2 0x12F1 JUMP JUMPDEST PUSH2 0x12C7 DUP6 PUSH2 0x1612 JUMP JUMPDEST PUSH1 0x0 JUMPDEST DUP4 DUP2 LT ISZERO PUSH2 0x12E9 JUMPI DUP2 SLOAD DUP2 DUP10 ADD MSTORE PUSH1 0x1 DUP3 ADD SWAP2 POP PUSH1 0x20 DUP2 ADD SWAP1 POP PUSH2 0x12CA JUMP JUMPDEST DUP4 DUP9 ADD SWAP6 POP POP POP JUMPDEST POP POP POP SWAP3 SWAP2 POP POP JUMP JUMPDEST PUSH1 0x0 PUSH2 0x1307 PUSH1 0x23 DUP4 PUSH2 0x1632 JUMP JUMPDEST SWAP2 POP PUSH2 0x1312 DUP3 PUSH2 0x17A0 JUMP JUMPDEST PUSH1 0x40 DUP3 ADD SWAP1 POP SWAP2 SWAP1 POP JUMP JUMPDEST PUSH1 0x0 PUSH2 0x132A PUSH1 0x2B DUP4 PUSH2 0x1632 JUMP JUMPDEST SWAP2 POP PUSH2 0x1335 DUP3 PUSH2 0x17EF JUMP JUMPDEST PUSH1 0x40 DUP3 ADD SWAP1 POP SWAP2 SWAP1 POP JUMP JUMPDEST PUSH1 0x0 PUSH2 0x134D PUSH1 0x11 DUP4 PUSH2 0x1632 JUMP JUMPDEST SWAP2 POP PUSH2 0x1358 DUP3 PUSH2 0x183E JUMP JUMPDEST PUSH1 0x20 DUP3 ADD SWAP1 POP SWAP2 SWAP1 POP JUMP JUMPDEST PUSH1 0x0 PUSH2 0x1370 PUSH1 0x22 DUP4 PUSH2 0x1632 JUMP JUMPDEST SWAP2 POP PUSH2 0x137B DUP3 PUSH2 0x1867 JUMP JUMPDEST PUSH1 0x40 DUP3 ADD SWAP1 POP SWAP2 SWAP1 POP JUMP JUMPDEST PUSH1 0x0 PUSH2 0x1393 PUSH1 0x22 DUP4 PUSH2 0x1632 JUMP JUMPDEST SWAP2 POP PUSH2 0x139E DUP3 PUSH2 0x18B6 JUMP JUMPDEST PUSH1 0x40 DUP3 ADD SWAP1 POP SWAP2 SWAP1 POP JUMP JUMPDEST PUSH1 0x0 PUSH2 0x13B5 DUP3 DUP5 PUSH2 0x124A JUMP JUMPDEST SWAP2 POP DUP2 SWAP1 POP SWAP3 SWAP2 POP POP JUMP JUMPDEST PUSH1 0x0 PUSH2 0x13CC DUP3 DUP5 PUSH2 0x127B JUMP JUMPDEST SWAP2 POP DUP2 SWAP1 POP SWAP3 SWAP2 POP POP JUMP JUMPDEST PUSH1 0x0 PUSH1 0x20 DUP3 ADD SWAP1 POP PUSH2 0x13EC PUSH1 0x0 DUP4 ADD DUP5 PUSH2 0x11F3 JUMP JUMPDEST SWAP3 SWAP2 POP POP JUMP JUMPDEST PUSH1 0x0 PUSH1 0x20 DUP3 ADD SWAP1 POP PUSH2 0x1407 PUSH1 0x0 DUP4 ADD DUP5 PUSH2 0x1202 JUMP JUMPDEST SWAP3 SWAP2 POP POP JUMP JUMPDEST PUSH1 0x0 PUSH1 0x20 DUP3 ADD SWAP1 POP DUP2 DUP2 SUB PUSH1 0x0 DUP4 ADD MSTORE PUSH2 0x1427 DUP2 DUP5 PUSH2 0x1211 JUMP JUMPDEST SWAP1 POP SWAP3 SWAP2 POP POP JUMP JUMPDEST PUSH1 0x0 PUSH1 0x40 DUP3 ADD SWAP1 POP DUP2 DUP2 SUB PUSH1 0x0 DUP4 ADD MSTORE PUSH2 0x1449 DUP2 DUP6 PUSH2 0x1211 JUMP JUMPDEST SWAP1 POP DUP2 DUP2 SUB PUSH1 0x20 DUP4 ADD MSTORE PUSH2 0x145D DUP2 DUP5 PUSH2 0x1211 JUMP JUMPDEST SWAP1 POP SWAP4 SWAP3 POP POP POP JUMP JUMPDEST PUSH1 0x0 PUSH2 0x100 DUP3 ADD SWAP1 POP DUP2 DUP2 SUB PUSH1 0x0 DUP4 ADD MSTORE PUSH2 0x1481 DUP2 DUP12 PUSH2 0x1211 JUMP JUMPDEST SWAP1 POP DUP2 DUP2 SUB PUSH1 0x20 DUP4 ADD MSTORE PUSH2 0x1495 DUP2 DUP11 PUSH2 0x1211 JUMP JUMPDEST SWAP1 POP DUP2 DUP2 SUB PUSH1 0x40 DUP4 ADD MSTORE PUSH2 0x14A9 DUP2 DUP10 PUSH2 0x1211 JUMP JUMPDEST SWAP1 POP DUP2 DUP2 SUB PUSH1 0x60 DUP4 ADD MSTORE PUSH2 0x14BD DUP2 DUP9 PUSH2 0x1211 JUMP JUMPDEST SWAP1 POP DUP2 DUP2 SUB PUSH1 0x80 DUP4 ADD MSTORE PUSH2 0x14D1 DUP2 DUP8 PUSH2 0x1211 JUMP JUMPDEST SWAP1 POP DUP2 DUP2 SUB PUSH1 0xA0 DUP4 ADD MSTORE PUSH2 0x14E5 DUP2 DUP7 PUSH2 0x1211 JUMP JUMPDEST SWAP1 POP DUP2 DUP2 SUB PUSH1 0xC0 DUP4 ADD MSTORE PUSH2 0x14F9 DUP2 DUP6 PUSH2 0x1211 JUMP JUMPDEST SWAP1 POP DUP2 DUP2 SUB PUSH1 0xE0 DUP4 ADD MSTORE PUSH2 0x150D DUP2 DUP5 PUSH2 0x1211 JUMP JUMPDEST SWAP1 POP SWAP10 SWAP9 POP POP POP POP POP POP POP POP POP JUMP JUMPDEST PUSH1 0x0 PUSH1 0x20 DUP3 ADD SWAP1 POP DUP2 DUP2 SUB PUSH1 0x0 DUP4 ADD MSTORE PUSH2 0x1535 DUP2 PUSH2 0x12FA JUMP JUMPDEST SWAP1 POP SWAP2 SWAP1 POP JUMP JUMPDEST PUSH1 0x0 PUSH1 0x20 DUP3 ADD SWAP1 POP DUP2 DUP2 SUB PUSH1 0x0 DUP4 ADD MSTORE PUSH2 0x1555 DUP2 PUSH2 0x131D JUMP JUMPDEST SWAP1 POP SWAP2 SWAP1 POP JUMP JUMPDEST PUSH1 0x0 PUSH1 0x20 DUP3 ADD SWAP1 POP DUP2 DUP2 SUB PUSH1 0x0 DUP4 ADD MSTORE PUSH2 0x1575 DUP2 PUSH2 0x1340 JUMP JUMPDEST SWAP1 POP SWAP2 SWAP1 POP JUMP JUMPDEST PUSH1 0x0 PUSH1 0x20 DUP3 ADD SWAP1 POP DUP2 DUP2 SUB PUSH1 0x0 DUP4 ADD MSTORE PUSH2 0x1595 DUP2 PUSH2 0x1363 JUMP JUMPDEST SWAP1 POP SWAP2 SWAP1 POP JUMP JUMPDEST PUSH1 0x0 PUSH1 0x20 DUP3 ADD SWAP1 POP DUP2 DUP2 SUB PUSH1 0x0 DUP4 ADD MSTORE PUSH2 0x15B5 DUP2 PUSH2 0x1386 JUMP JUMPDEST SWAP1 POP SWAP2 SWAP1 POP JUMP JUMPDEST PUSH1 0x0 PUSH2 0x15C6 PUSH2 0x15D7 JUMP JUMPDEST SWAP1 POP PUSH2 0x15D2 DUP3 DUP3 PUSH2 0x1700 JUMP JUMPDEST SWAP2 SWAP1 POP JUMP JUMPDEST PUSH1 0x0 PUSH1 0x40 MLOAD SWAP1 POP SWAP1 JUMP JUMPDEST PUSH1 0x0 PUSH8 0xFFFFFFFFFFFFFFFF DUP3 GT ISZERO PUSH2 0x15FC JUMPI PUSH2 0x15FB PUSH2 0x1760 JUMP JUMPDEST JUMPDEST PUSH2 0x1605 DUP3 PUSH2 0x178F JUMP JUMPDEST SWAP1 POP PUSH1 0x20 DUP2 ADD SWAP1 POP SWAP2 SWAP1 POP JUMP JUMPDEST PUSH1 0x0 DUP2 SWAP1 POP DUP2 PUSH1 0x0 MSTORE PUSH1 0x20 PUSH1 0x0 KECCAK256 SWAP1 POP SWAP2 SWAP1 POP JUMP JUMPDEST PUSH1 0x0 DUP2 MLOAD SWAP1 POP SWAP2 SWAP1 POP JUMP JUMPDEST PUSH1 0x0 DUP3 DUP3 MSTORE PUSH1 0x20 DUP3 ADD SWAP1 POP SWAP3 SWAP2 POP POP JUMP JUMPDEST PUSH1 0x0 DUP2 SWAP1 POP SWAP3 SWAP2 POP POP JUMP JUMPDEST PUSH1 0x0 PUSH2 0x1659 DUP3 PUSH2 0x166C JUMP JUMPDEST SWAP1 POP SWAP2 SWAP1 POP JUMP JUMPDEST PUSH1 0x0 DUP2 ISZERO ISZERO SWAP1 POP SWAP2 SWAP1 POP JUMP JUMPDEST PUSH1 0x0 PUSH20 0xFFFFFFFFFFFFFFFFFFFFFFFFFFFFFFFFFFFFFFFF DUP3 AND SWAP1 POP SWAP2 SWAP1 POP JUMP JUMPDEST DUP3 DUP2 DUP4 CALLDATACOPY PUSH1 0x0 DUP4 DUP4 ADD MSTORE POP POP POP JUMP JUMPDEST PUSH1 0x0 JUMPDEST DUP4 DUP2 LT ISZERO PUSH2 0x16B9 JUMPI DUP1 DUP3 ADD MLOAD DUP2 DUP5 ADD MSTORE PUSH1 0x20 DUP2 ADD SWAP1 POP PUSH2 0x169E JUMP JUMPDEST DUP4 DUP2 GT ISZERO PUSH2 0x16C8 JUMPI PUSH1 0x0 DUP5 DUP5 ADD MSTORE JUMPDEST POP POP POP POP JUMP JUMPDEST PUSH1 0x0 PUSH1 0x2 DUP3 DIV SWAP1 POP PUSH1 0x1 DUP3 AND DUP1 PUSH2 0x16E6 JUMPI PUSH1 0x7F DUP3 AND SWAP2 POP JUMPDEST PUSH1 0x20 DUP3 LT DUP2 EQ ISZERO PUSH2 0x16FA JUMPI PUSH2 0x16F9 PUSH2 0x1731 JUMP JUMPDEST JUMPDEST POP SWAP2 SWAP1 POP JUMP JUMPDEST PUSH2 0x1709 DUP3 PUSH2 0x178F JUMP JUMPDEST DUP2 ADD DUP2 DUP2 LT PUSH8 0xFFFFFFFFFFFFFFFF DUP3 GT OR ISZERO PUSH2 0x1728 JUMPI PUSH2 0x1727 PUSH2 0x1760 JUMP JUMPDEST JUMPDEST DUP1 PUSH1 0x40 MSTORE POP POP POP JUMP JUMPDEST PUSH32 0x4E487B7100000000000000000000000000000000000000000000000000000000 PUSH1 0x0 MSTORE PUSH1 0x22 PUSH1 0x4 MSTORE PUSH1 0x24 PUSH1 0x0 REVERT JUMPDEST PUSH32 0x4E487B7100000000000000000000000000000000000000000000000000000000 PUSH1 0x0 MSTORE PUSH1 0x41 PUSH1 0x4 MSTORE PUSH1 0x24 PUSH1 0x0 REVERT JUMPDEST PUSH1 0x0 PUSH1 0x1F NOT PUSH1 0x1F DUP4 ADD AND SWAP1 POP SWAP2 SWAP1 POP JUMP JUMPDEST PUSH32 0x4F6E6C7920646F63746F722063616E20706572666F726D207468697320616374 PUSH1 0x0 DUP3 ADD MSTORE PUSH32 0x696F6E0000000000000000000000000000000000000000000000000000000000 PUSH1 0x20 DUP3 ADD MSTORE POP JUMP JUMPDEST PUSH32 0x4F6E6C792070617469656E742063616E2076696577207468656972206D656469 PUSH1 0x0 DUP3 ADD MSTORE PUSH32 0x63616C20686973746F7279000000000000000000000000000000000000000000 PUSH1 0x20 DUP3 ADD MSTORE POP JUMP JUMPDEST PUSH32 0x50617469656E74206E6F7420666F756E64000000000000000000000000000000 PUSH1 0x0 DUP3 ADD MSTORE POP JUMP JUMPDEST PUSH32 0x4F6E6C792061646D696E2063616E20706572666F726D20746869732061637469 PUSH1 0x0 DUP3 ADD MSTORE PUSH32 0x6F6E000000000000000000000000000000000000000000000000000000000000 PUSH1 0x20 DUP3 ADD MSTORE POP JUMP JUMPDEST PUSH32 0x4F6E6C79206F776E65722063616E20706572666F726D20746869732061637469 PUSH1 0x0 DUP3 ADD MSTORE PUSH32 0x6F6E000000000000000000000000000000000000000000000000000000000000 PUSH1 0x20 DUP3 ADD MSTORE POP JUMP JUMPDEST PUSH2 0x190E DUP2 PUSH2 0x164E JUMP JUMPDEST DUP2 EQ PUSH2 0x1919 JUMPI PUSH1 0x0 DUP1 REVERT JUMPDEST POP JUMP INVALID LOG2 PUSH5 0x6970667358 0x22 SLT KECCAK256 0x1E 0xDA CALLCODE DIV 0xEF 0x26 0xBC 0xF DUP16 PUSH12 0x397E4E95005FC7337E1617F4 0xE9 TIMESTAMP 0x24 0xAC PUSH11 0x1E1EF0290364736F6C6343 STOP ADDMOD DIV STOP CALLER "},"methodIdentifiers":{"addAdmin(address)":"70480275","addDoctor(address)":"4780468f","admins(address)":"429b62e5","doctors(address)":"a9583c22","owner()":"8da5cb5b","patients(string)":"c6009d84","registerPatient(string,string,string,string,string,string,string,string)":"29cf54a3","updateMedicalHistory(string,string)":"215fd7e7","viewMedicalHistory(string)":"1214570a"}}}}}