{
  "_format": "hh-sol-artifact-1",
  "contractName": "MedVaultRecords",
  "sourceName": "contracts/MedVaultRecords.sol",
  "abi": [
    {
      "inputs": [],
      "stateMutability": "nonpayable",
      "type": "constructor"
    },
    {
      "anonymous": false,
      "inputs": [
        {
          "indexed": false,
          "internalType": "address",
          "name": "admin",
          "type": "address"
        }
      ],
      "name": "AdminAdded",
      "type": "event"
    },
    {
      "anonymous": false,
      "inputs": [
        {
          "indexed": false,
          "internalType": "address",
          "name": "doctor",
          "type": "address"
        }
      ],
      "name": "DoctorAdded",
      "type": "event"
    },
    {
      "anonymous": false,
      "inputs": [
        {
          "indexed": false,
          "internalType": "string",
          "name": "id",
          "type": "string"
        },
        {
          "indexed": false,
          "internalType": "string",
          "name": "updatedHistory",
          "type": "string"
        }
      ],
      "name": "MedicalHistoryUpdated",
      "type": "event"
    },
    {
      "anonymous": false,
      "inputs": [
        {
          "indexed": false,
          "internalType": "string",
          "name": "id",
          "type": "string"
        },
        {
          "indexed": false,
          "internalType": "string",
          "name": "patientName",
          "type": "string"
        }
      ],
      "name": "PatientRegistered",
      "type": "event"
    },
    {
      "inputs": [
        {
          "internalType": "address",
          "name": "admin",
          "type": "address"
        }
      ],
      "name": "addAdmin",
      "outputs": [],
      "stateMutability": "nonpayable",
      "type": "function"
    },
    {
      "inputs": [
        {
          "internalType": "address",
          "name": "doctor",
          "type": "address"
        }
      ],
      "name": "addDoctor",
      "outputs": [],
      "stateMutability": "nonpayable",
      "type": "function"
    },
    {
      "inputs": [
        {
          "internalType": "address",
          "name": "",
          "type": "address"
        }
      ],
      "name": "admins",
      "outputs": [
        {
          "internalType": "bool",
          "name": "",
          "type": "bool"
        }
      ],
      "stateMutability": "view",
      "type": "function"
    },
    {
      "inputs": [
        {
          "internalType": "address",
          "name": "",
          "type": "address"
        }
      ],
      "name": "doctors",
      "outputs": [
        {
          "internalType": "bool",
          "name": "",
          "type": "bool"
        }
      ],
      "stateMutability": "view",
      "type": "function"
    },
    {
      "inputs": [],
      "name": "owner",
      "outputs": [
        {
          "internalType": "address",
          "name": "",
          "type": "address"
        }
      ],
      "stateMutability": "view",
      "type": "function"
    },
    {
      "inputs": [
        {
          "internalType": "string",
          "name": "",
          "type": "string"
        }
      ],
      "name": "patients",
      "outputs": [
        {
          "internalType": "string",
          "name": "id",
          "type": "string"
        },
        {
          "internalType": "string",
          "name": "name",
          "type": "string"
        },
        {
          "internalType": "string",
          "name": "gender",
          "type": "string"
        },
        {
          "internalType": "string",
          "name": "dateOfBirth",
          "type": "string"
        },
        {
          "internalType": "string",
          "name": "bloodType",
          "type": "string"
        },
        {
          "internalType": "string",
          "name": "imageUrl",
          "type": "string"
        },
        {
          "internalType": "string",
          "name": "medicalHistory",
          "type": "string"
        },
        {
          "internalType": "string",
          "name": "treatmentHistory",
          "type": "string"
        }
      ],
      "stateMutability": "view",
      "type": "function"
    },
    {
      "inputs": [
        {
          "internalType": "string",
          "name": "id",
          "type": "string"
        },
        {
          "internalType": "string",
          "name": "name",
          "type": "string"
        },
        {
          "internalType": "string",
          "name": "gender",
          "type": "string"
        },
        {
          "internalType": "string",
          "name": "dateOfBirth",
          "type": "string"
        },
        {
          "internalType": "string",
          "name": "bloodType",
          "type": "string"
        },
        {
          "internalType": "string",
          "name": "imageUrl",
          "type": "string"
        },
        {
          "internalType": "string",
          "name": "medicalHistory",
          "type": "string"
        },
        {
          "internalType": "string",
          "name": "treatmentHistory",
          "type": "string"
        }
      ],
      "name": "registerPatient",
      "outputs": [],
      "stateMutability": "nonpayable",
      "type": "function"
    },
    {
      "inputs": [
        {
          "internalType": "string",
          "name": "id",
          "type": "string"
        },
        {
          "internalType": "string",
          "name": "newMedicalHistory",
          "type": "string"
        }
      ],
      "name": "updateMedicalHistory",
      "outputs": [],
      "stateMutability": "nonpayable",
      "type": "function"
    },
    {
      "inputs": [
        {
          "internalType": "string",
          "name": "id",
          "type": "string"
        }
      ],
      "name": "viewMedicalHistory",
      "outputs": [
        {
          "internalType": "string",
          "name": "",
          "type": "string"
        }
      ],
      "stateMutability": "view",
      "type": "function"
    }
  ],
  "bytecode": "0x608060405234801561001057600080fd5b50336000806101000a81548173ffffffffffffffffffffffffffffffffffffffff021916908373ffffffffffffffffffffffffffffffffffffffff160217905550611952806100606000396000f3fe608060405234801561001057600080fd5b50600436106100935760003560e01c80634780468f116100665780634780468f14610130578063704802751461014c5780638da5cb5b14610168578063a9583c2214610186578063c6009d84146101b657610093565b80631214570a14610098578063215fd7e7146100c857806329cf54a3146100e4578063429b62e514610100575b600080fd5b6100b260048036038101906100ad9190610fd4565b6101ed565b6040516100bf919061140d565b60405180910390f35b6100e260048036038101906100dd9190611015565b6103c1565b005b6100fe60048036038101906100f99190611081565b610531565b005b61011a60048036038101906101159190610fab565b610749565b60405161012791906113f2565b60405180910390f35b61014a60048036038101906101459190610fab565b610769565b005b61016660048036038101906101619190610fab565b610889565b005b6101706109a9565b60405161017d91906113d7565b60405180910390f35b6101a0600480360381019061019b9190610fab565b6109cd565b6040516101ad91906113f2565b60405180910390f35b6101d060048036038101906101cb9190610fd4565b6109ed565b6040516101e4989796959493929190611466565b60405180910390f35b6060818060405160200161020191906113a9565b6040516020818303038152906040528051906020012060018260405161022791906113a9565b908152602001604051809103902060000160405160200161024891906113c0565b604051602081830303815290604052805190602001201461029e576040517f08c379a00000000000000000000000000000000000000000000000000000000081526004016102959061153c565b60405180910390fd5b60006001846040516102b091906113a9565b908152602001604051809103902060000180546102cc906116ce565b9050141561030f576040517f08c379a00000000000000000000000000000000000000000000000000000000081526004016103069061155c565b60405180910390fd5b60018360405161031f91906113a9565b9081526020016040518091039020600601805461033b906116ce565b80601f0160208091040260200160405190810160405280929190818152602001828054610367906116ce565b80156103b45780601f10610389576101008083540402835291602001916103b4565b820191906000526020600020905b81548152906001019060200180831161039757829003601f168201915b5050505050915050919050565b600260003373ffffffffffffffffffffffffffffffffffffffff1673ffffffffffffffffffffffffffffffffffffffff16815260200190815260200160002060009054906101000a900460ff1661044d576040517f08c379a00000000000000000000000000000000000000000000000000000000081526004016104449061151c565b60405180910390fd5b600060018360405161045f91906113a9565b9081526020016040518091039020600001805461047b906116ce565b905014156104be576040517f08c379a00000000000000000000000000000000000000000000000000000000081526004016104b59061155c565b60405180910390fd5b806001836040516104cf91906113a9565b908152602001604051809103902060060190805190602001906104f3929190610e8b565b507fd31b335f901709f0ccd4b82b7bb6e539ed7d8830fab725b2848e4ec4f8ac7514828260405161052592919061142f565b60405180910390a15050565b600360003373ffffffffffffffffffffffffffffffffffffffff1673ffffffffffffffffffffffffffffffffffffffff16815260200190815260200160002060009054906101000a900460ff166105bd576040517f08c379a00000000000000000000000000000000000000000000000000000000081526004016105b49061157c565b60405180910390fd5b60006040518061010001604052808a81526020018981526020018881526020018781526020018681526020018581526020018481526020018381525090508060018a60405161060c91906113a9565b90815260200160405180910390206000820151816000019080519060200190610636929190610e8b565b506020820151816001019080519060200190610653929190610e8b565b506040820151816002019080519060200190610670929190610e8b565b50606082015181600301908051906020019061068d929190610e8b565b5060808201518160040190805190602001906106aa929190610e8b565b5060a08201518160050190805190602001906106c7929190610e8b565b5060c08201518160060190805190602001906106e4929190610e8b565b5060e0820151816007019080519060200190610701929190610e8b565b509050507ff57ecee040edfbd184404d12d5f2f7343575add2ba648066a9a501fa19bf3a27898960405161073692919061142f565b60405180910390a1505050505050505050565b60036020528060005260406000206000915054906101000a900460ff1681565b60008054906101000a900473ffffffffffffffffffffffffffffffffffffffff1673ffffffffffffffffffffffffffffffffffffffff163373ffffffffffffffffffffffffffffffffffffffff16146107f7576040517f08c379a00000000000000000000000000000000000000000000000000000000081526004016107ee9061159c565b60405180910390fd5b6001600260008373ffffffffffffffffffffffffffffffffffffffff1673ffffffffffffffffffffffffffffffffffffffff16815260200190815260200160002060006101000a81548160ff0219169083151502179055507f69908b2e63170aa89ef89719bbe3b4c92cccc38653968ab25f4464eff7c28ac88160405161087e91906113d7565b60405180910390a150565b60008054906101000a900473ffffffffffffffffffffffffffffffffffffffff1673ffffffffffffffffffffffffffffffffffffffff163373ffffffffffffffffffffffffffffffffffffffff1614610917576040517f08c379a000000000000000000000000000000000000000000000000000000000815260040161090e9061159c565b60405180910390fd5b6001600360008373ffffffffffffffffffffffffffffffffffffffff1673ffffffffffffffffffffffffffffffffffffffff16815260200190815260200160002060006101000a81548160ff0219169083151502179055507f44d6d25963f097ad14f29f06854a01f575648a1ef82f30e562ccd3889717e3398160405161099e91906113d7565b60405180910390a150565b60008054906101000a900473ffffffffffffffffffffffffffffffffffffffff1681565b60026020528060005260406000206000915054906101000a900460ff1681565b600181805160208101820180518482526020830160208501208183528095505050505050600091509050806000018054610a26906116ce565b80601f0160208091040260200160405190810160405280929190818152602001828054610a52906116ce565b8015610a9f5780601f10610a7457610100808354040283529160200191610a9f565b820191906000526020600020905b815481529060010190602001808311610a8257829003601f168201915b505050505090806001018054610ab4906116ce565b80601f0160208091040260200160405190810160405280929190818152602001828054610ae0906116ce565b8015610b2d5780601f10610b0257610100808354040283529160200191610b2d565b820191906000526020600020905b815481529060010190602001808311610b1057829003601f168201915b505050505090806002018054610b42906116ce565b80601f0160208091040260200160405190810160405280929190818152602001828054610b6e906116ce565b8015610bbb5780601f10610b9057610100808354040283529160200191610bbb565b820191906000526020600020905b815481529060010190602001808311610b9e57829003601f168201915b505050505090806003018054610bd0906116ce565b80601f0160208091040260200160405190810160405280929190818152602001828054610bfc906116ce565b8015610c495780601f10610c1e57610100808354040283529160200191610c49565b820191906000526020600020905b815481529060010190602001808311610c2c57829003601f168201915b505050505090806004018054610c5e906116ce565b80601f0160208091040260200160405190810160405280929190818152602001828054610c8a906116ce565b8015610cd75780601f10610cac57610100808354040283529160200191610cd7565b820191906000526020600020905b815481529060010190602001808311610cba57829003601f168201915b505050505090806005018054610cec906116ce565b80601f0160208091040260200160405190810160405280929190818152602001828054610d18906116ce565b8015610d655780601f10610d3a57610100808354040283529160200191610d65565b820191906000526020600020905b815481529060010190602001808311610d4857829003601f168201915b505050505090806006018054610d7a906116ce565b80601f0160208091040260200160405190810160405280929190818152602001828054610da6906116ce565b8015610df35780601f10610dc857610100808354040283529160200191610df3565b820191906000526020600020905b815481529060010190602001808311610dd657829003601f168201915b505050505090806007018054610e08906116ce565b80601f0160208091040260200160405190810160405280929190818152602001828054610e34906116ce565b8015610e815780601f10610e5657610100808354040283529160200191610e81565b820191906000526020600020905b815481529060010190602001808311610e6457829003601f168201915b5050505050905088565b828054610e97906116ce565b90600052602060002090601f016020900481019282610eb95760008555610f00565b82601f10610ed257805160ff1916838001178555610f00565b82800160010185558215610f00579182015b82811115610eff578251825591602001919060010190610ee4565b5b509050610f0d9190610f11565b5090565b5b80821115610f2a576000816000905550600101610f12565b5090565b6000610f41610f3c846115e1565b6115bc565b905082815260208101848484011115610f5957600080fd5b610f6484828561168c565b509392505050565b600081359050610f7b81611905565b92915050565b600082601f830112610f9257600080fd5b8135610fa2848260208601610f2e565b91505092915050565b600060208284031215610fbd57600080fd5b6000610fcb84828501610f6c565b91505092915050565b600060208284031215610fe657600080fd5b600082013567ffffffffffffffff81111561100057600080fd5b61100c84828501610f81565b91505092915050565b6000806040838503121561102857600080fd5b600083013567ffffffffffffffff81111561104257600080fd5b61104e85828601610f81565b925050602083013567ffffffffffffffff81111561106b57600080fd5b61107785828601610f81565b9150509250929050565b600080600080600080600080610100898b03121561109e57600080fd5b600089013567ffffffffffffffff8111156110b857600080fd5b6110c48b828c01610f81565b985050602089013567ffffffffffffffff8111156110e157600080fd5b6110ed8b828c01610f81565b975050604089013567ffffffffffffffff81111561110a57600080fd5b6111168b828c01610f81565b965050606089013567ffffffffffffffff81111561113357600080fd5b61113f8b828c01610f81565b955050608089013567ffffffffffffffff81111561115c57600080fd5b6111688b828c01610f81565b94505060a089013567ffffffffffffffff81111561118557600080fd5b6111918b828c01610f81565b93505060c089013567ffffffffffffffff8111156111ae57600080fd5b6111ba8b828c01610f81565b92505060e089013567ffffffffffffffff8111156111d757600080fd5b6111e38b828c01610f81565b9150509295985092959890939650565b6111fc8161164e565b82525050565b61120b81611660565b82525050565b600061121c82611627565b6112268185611632565b935061123681856020860161169b565b61123f8161178f565b840191505092915050565b600061125582611627565b61125f8185611643565b935061126f81856020860161169b565b80840191505092915050565b60008154611288816116ce565b6112928186611643565b945060018216600081146112ad57600181146112be576112f1565b60ff198316865281860193506112f1565b6112c785611612565b60005b838110156112e9578154818901526001820191506020810190506112ca565b838801955050505b50505092915050565b6000611307602383611632565b9150611312826117a0565b604082019050919050565b600061132a602b83611632565b9150611335826117ef565b604082019050919050565b600061134d601183611632565b91506113588261183e565b602082019050919050565b6000611370602283611632565b915061137b82611867565b604082019050919050565b6000611393602283611632565b915061139e826118b6565b604082019050919050565b60006113b5828461124a565b915081905092915050565b60006113cc828461127b565b915081905092915050565b60006020820190506113ec60008301846111f3565b92915050565b60006020820190506114076000830184611202565b92915050565b600060208201905081810360008301526114278184611211565b905092915050565b600060408201905081810360008301526114498185611211565b9050818103602083015261145d8184611211565b90509392505050565b6000610100820190508181036000830152611481818b611211565b90508181036020830152611495818a611211565b905081810360408301526114a98189611211565b905081810360608301526114bd8188611211565b905081810360808301526114d18187611211565b905081810360a08301526114e58186611211565b905081810360c08301526114f98185611211565b905081810360e083015261150d8184611211565b90509998505050505050505050565b60006020820190508181036000830152611535816112fa565b9050919050565b600060208201905081810360008301526115558161131d565b9050919050565b6000602082019050818103600083015261157581611340565b9050919050565b6000602082019050818103600083015261159581611363565b9050919050565b600060208201905081810360008301526115b581611386565b9050919050565b60006115c66115d7565b90506115d28282611700565b919050565b6000604051905090565b600067ffffffffffffffff8211156115fc576115fb611760565b5b6116058261178f565b9050602081019050919050565b60008190508160005260206000209050919050565b600081519050919050565b600082825260208201905092915050565b600081905092915050565b60006116598261166c565b9050919050565b60008115159050919050565b600073ffffffffffffffffffffffffffffffffffffffff82169050919050565b82818337600083830152505050565b60005b838110156116b957808201518184015260208101905061169e565b838111156116c8576000848401525b50505050565b600060028204905060018216806116e657607f821691505b602082108114156116fa576116f9611731565b5b50919050565b6117098261178f565b810181811067ffffffffffffffff8211171561172857611727611760565b5b80604052505050565b7f4e487b7100000000000000000000000000000000000000000000000000000000600052602260045260246000fd5b7f4e487b7100000000000000000000000000000000000000000000000000000000600052604160045260246000fd5b6000601f19601f8301169050919050565b7f4f6e6c7920646f63746f722063616e20706572666f726d20746869732061637460008201527f696f6e0000000000000000000000000000000000000000000000000000000000602082015250565b7f4f6e6c792070617469656e742063616e2076696577207468656972206d65646960008201527f63616c20686973746f7279000000000000000000000000000000000000000000602082015250565b7f50617469656e74206e6f7420666f756e64000000000000000000000000000000600082015250565b7f4f6e6c792061646d696e2063616e20706572666f726d2074686973206163746960008201527f6f6e000000000000000000000000000000000000000000000000000000000000602082015250565b7f4f6e6c79206f776e65722063616e20706572666f726d2074686973206163746960008201527f6f6e000000000000000000000000000000000000000000000000000000000000602082015250565b61190e8161164e565b811461191957600080fd5b5056fea26469706673582212201edaf204ef26bc0f8f6b397e4e95005fc7337e1617f4e94224ac6a1e1ef0290364736f6c63430008040033",
  "linkReferences": {},
  "deployedLinkReferences": {}
}