{
  "_format": "hh-sol-artifact-1",
  "contractName": "MedVaultRecords",
  "sourceName": "contracts/MedVaultRecords.sol",
  "abi": [
    {
      "inputs": [],
      "stateMutability": "nonpayable",
      "type": "constructor"
    },
    {
      "anonymous": false,
      "inputs": [
        {
          "indexed": false,
          "internalType": "address",
          "name": "admin",
          "type": "address"
        }
      ],
      "name": "AdminAdded",
      "type": "event"
    },
    {
      "anonymous": false,
      "inputs": [
        {
          "indexed": false,
          "internalType": "address",
          "name": "doctor",
          "type": "address"
        }
      ],
      "name": "DoctorAdded",
      "type": "event"
    },
    {
      "anonymous": false,
      "inputs": [
        {
          "indexed": false,
          "internalType": "uint256",
          "name": "id",
          "type": "uint256"
        },
        {
          "indexed": false,
          "internalType": "string",
          "name": "updatedHistory",
          "type": "string"
        }
      ],
      "name": "MedicalHistoryUpdated",
      "type": "event"
    },
    {
      "anonymous": false,
      "inputs": [
        {
          "indexed": true,
          "internalType": "uint256",
          "name": "id",
          "type": "uint256"
        },
        {
          "indexed": false,
          "internalType": "string",
          "name": "name",
          "type": "string"
        }
      ],
      "name": "PatientRegistered",
      "type": "event"
    },
    {
      "inputs": [
        {
          "internalType": "address",
          "name": "admin",
          "type": "address"
        }
      ],
      "name": "addAdmin",
      "outputs": [],
      "stateMutability": "nonpayable",
      "type": "function"
    },
    {
      "inputs": [
        {
          "internalType": "address",
          "name": "doctor",
          "type": "address"
        }
      ],
      "name": "addDoctor",
      "outputs": [],
      "stateMutability": "nonpayable",
      "type": "function"
    },
    {
      "inputs": [
        {
          "internalType": "address",
          "name": "",
          "type": "address"
        }
      ],
      "name": "admins",
      "outputs": [
        {
          "internalType": "bool",
          "name": "",
          "type": "bool"
        }
      ],
      "stateMutability": "view",
      "type": "function"
    },
    {
      "inputs": [
        {
          "internalType": "address",
          "name": "",
          "type": "address"
        }
      ],
      "name": "doctors",
      "outputs": [
        {
          "internalType": "bool",
          "name": "",
          "type": "bool"
        }
      ],
      "stateMutability": "view",
      "type": "function"
    },
    {
      "inputs": [
        {
          "internalType": "address",
          "name": "patientAddress",
          "type": "address"
        }
      ],
      "name": "getPatientByAddress",
      "outputs": [
        {
          "components": [
            {
              "internalType": "uint256",
              "name": "id",
              "type": "uint256"
            },
            {
              "internalType": "string",
              "name": "name",
              "type": "string"
            },
            {
              "internalType": "string",
              "name": "gender",
              "type": "string"
            },
            {
              "internalType": "string",
              "name": "dateOfBirth",
              "type": "string"
            },
            {
              "internalType": "string",
              "name": "bloodType",
              "type": "string"
            },
            {
              "internalType": "string",
              "name": "imageUrl",
              "type": "string"
            },
            {
              "internalType": "string",
              "name": "medicalHistory",
              "type": "string"
            },
            {
              "internalType": "string",
              "name": "treatmentHistory",
              "type": "string"
            },
            {
              "internalType": "address",
              "name": "patientAddress",
              "type": "address"
            }
          ],
          "internalType": "struct MedVaultRecords.Patient",
          "name": "",
          "type": "tuple"
        }
      ],
      "stateMutability": "view",
      "type": "function"
    },
    {
      "inputs": [],
      "name": "owner",
      "outputs": [
        {
          "internalType": "address",
          "name": "",
          "type": "address"
        }
      ],
      "stateMutability": "view",
      "type": "function"
    },
    {
      "inputs": [],
      "name": "patientCount",
      "outputs": [
        {
          "internalType": "uint256",
          "name": "",
          "type": "uint256"
        }
      ],
      "stateMutability": "view",
      "type": "function"
    },
    {
      "inputs": [
        {
          "internalType": "uint256",
          "name": "",
          "type": "uint256"
        }
      ],
      "name": "patients",
      "outputs": [
        {
          "internalType": "uint256",
          "name": "id",
          "type": "uint256"
        },
        {
          "internalType": "string",
          "name": "name",
          "type": "string"
        },
        {
          "internalType": "string",
          "name": "gender",
          "type": "string"
        },
        {
          "internalType": "string",
          "name": "dateOfBirth",
          "type": "string"
        },
        {
          "internalType": "string",
          "name": "bloodType",
          "type": "string"
        },
        {
          "internalType": "string",
          "name": "imageUrl",
          "type": "string"
        },
        {
          "internalType": "string",
          "name": "medicalHistory",
          "type": "string"
        },
        {
          "internalType": "string",
          "name": "treatmentHistory",
          "type": "string"
        },
        {
          "internalType": "address",
          "name": "patientAddress",
          "type": "address"
        }
      ],
      "stateMutability": "view",
      "type": "function"
    },
    {
      "inputs": [
        {
          "internalType": "uint256",
          "name": "id",
          "type": "uint256"
        },
        {
          "internalType": "string",
          "name": "name",
          "type": "string"
        },
        {
          "internalType": "string",
          "name": "gender",
          "type": "string"
        },
        {
          "internalType": "string",
          "name": "dateOfBirth",
          "type": "string"
        },
        {
          "internalType": "string",
          "name": "bloodType",
          "type": "string"
        },
        {
          "internalType": "string",
          "name": "imageUrl",
          "type": "string"
        },
        {
          "internalType": "string",
          "name": "medicalHistory",
          "type": "string"
        },
        {
          "internalType": "string",
          "name": "treatmentHistory",
          "type": "string"
        },
        {
          "internalType": "address",
          "name": "patientAddress",
          "type": "address"
        }
      ],
      "name": "registerPatient",
      "outputs": [],
      "stateMutability": "nonpayable",
      "type": "function"
    },
    {
      "inputs": [
        {
          "internalType": "uint256",
          "name": "id",
          "type": "uint256"
        },
        {
          "internalType": "string",
          "name": "newMedicalHistory",
          "type": "string"
        }
      ],
      "name": "updateMedicalHistory",
      "outputs": [],
      "stateMutability": "nonpayable",
      "type": "function"
    },
    {
      "inputs": [
        {
          "internalType": "uint256",
          "name": "id",
          "type": "uint256"
        }
      ],
      "name": "viewMedicalHistory",
      "outputs": [
        {
          "internalType": "string",
          "name": "",
          "type": "string"
        }
      ],
      "stateMutability": "view",
      "type": "function"
    }
  ],
  "bytecode": "0x6080604052600060015534801561001557600080fd5b50336000806101000a81548173ffffffffffffffffffffffffffffffffffffffff021916908373ffffffffffffffffffffffffffffffffffffffff1602179055506001600460003373ffffffffffffffffffffffffffffffffffffffff1673ffffffffffffffffffffffffffffffffffffffff16815260200190815260200160002060006101000a81548160ff02191690831515021790555061201a806100bd6000396000f3fe608060405234801561001057600080fd5b50600436106100a95760003560e01c80638da5cb5b116100715780638da5cb5b1461014e57806393119a831461016c578063a0303c41146101a4578063a9583c22146101c2578063ba5c0335146101f2578063e85c0e9114610222576100a9565b80633343696c146100ae578063429b62e5146100ca5780634780468f146100fa57806365dcb48e146101165780637048027514610132575b600080fd5b6100c860048036038101906100c391906115ba565b610252565b005b6100e460048036038101906100df9190611568565b6103a0565b6040516100f191906119f2565b60405180910390f35b610114600480360381019061010f9190611568565b6103c0565b005b610130600480360381019061012b919061160e565b6104e0565b005b61014c60048036038101906101479190611568565b61073e565b005b61015661085e565b60405161016391906119d7565b60405180910390f35b61018660048036038101906101819190611591565b610882565b60405161019b99989796959493929190611b3c565b60405180910390f35b6101ac610ca8565b6040516101b99190611af1565b60405180910390f35b6101dc60048036038101906101d79190611568565b610cae565b6040516101e991906119f2565b60405180910390f35b61020c60048036038101906102079190611568565b610cce565b6040516102199190611acf565b60405180910390f35b61023c60048036038101906102379190611591565b611229565b6040516102499190611a0d565b60405180910390f35b600360003373ffffffffffffffffffffffffffffffffffffffff1673ffffffffffffffffffffffffffffffffffffffff16815260200190815260200160002060009054906101000a900460ff166102de576040517f08c379a00000000000000000000000000000000000000000000000000000000081526004016102d590611a2f565b60405180910390fd5b600060026000848152602001908152602001600020600001541415610338576040517f08c379a000000000000000000000000000000000000000000000000000000000815260040161032f90611a6f565b60405180910390fd5b806002600084815260200190815260200160002060060190805190602001906103629291906113d1565b507f17f07e8b5ac2fc1c92563f10d0dceaece09825472e450ffb065c7268cd3caef48282604051610394929190611b0c565b60405180910390a15050565b60046020528060005260406000206000915054906101000a900460ff1681565b60008054906101000a900473ffffffffffffffffffffffffffffffffffffffff1673ffffffffffffffffffffffffffffffffffffffff163373ffffffffffffffffffffffffffffffffffffffff161461044e576040517f08c379a000000000000000000000000000000000000000000000000000000000815260040161044590611aaf565b60405180910390fd5b6001600360008373ffffffffffffffffffffffffffffffffffffffff1673ffffffffffffffffffffffffffffffffffffffff16815260200190815260200160002060006101000a81548160ff0219169083151502179055507f69908b2e63170aa89ef89719bbe3b4c92cccc38653968ab25f4464eff7c28ac8816040516104d591906119d7565b60405180910390a150565b600460003373ffffffffffffffffffffffffffffffffffffffff1673ffffffffffffffffffffffffffffffffffffffff16815260200190815260200160002060009054906101000a900460ff1661056c576040517f08c379a000000000000000000000000000000000000000000000000000000000815260040161056390611a8f565b60405180910390fd5b60006040518061012001604052808b81526020018a81526020018981526020018881526020018781526020018681526020018581526020018481526020018373ffffffffffffffffffffffffffffffffffffffff16815250905080600260008c81526020019081526020016000206000820151816000015560208201518160010190805190602001906106009291906113d1565b50604082015181600201908051906020019061061d9291906113d1565b50606082015181600301908051906020019061063a9291906113d1565b5060808201518160040190805190602001906106579291906113d1565b5060a08201518160050190805190602001906106749291906113d1565b5060c08201518160060190805190602001906106919291906113d1565b5060e08201518160070190805190602001906106ae9291906113d1565b506101008201518160080160006101000a81548173ffffffffffffffffffffffffffffffffffffffff021916908373ffffffffffffffffffffffffffffffffffffffff160217905550905050897f6c19f22d83a1ce20713b4c747e3a78c3036498ced71d283c697d587033783bd08a60405161072a9190611a0d565b60405180910390a250505050505050505050565b60008054906101000a900473ffffffffffffffffffffffffffffffffffffffff1673ffffffffffffffffffffffffffffffffffffffff163373ffffffffffffffffffffffffffffffffffffffff16146107cc576040517f08c379a00000000000000000000000000000000000000000000000000000000081526004016107c390611aaf565b60405180910390fd5b6001600460008373ffffffffffffffffffffffffffffffffffffffff1673ffffffffffffffffffffffffffffffffffffffff16815260200190815260200160002060006101000a81548160ff0219169083151502179055507f44d6d25963f097ad14f29f06854a01f575648a1ef82f30e562ccd3889717e3398160405161085391906119d7565b60405180910390a150565b60008054906101000a900473ffffffffffffffffffffffffffffffffffffffff1681565b60026020528060005260406000206000915090508060000154908060010180546108ab90611d07565b80601f01602080910402602001604051908101604052809291908181526020018280546108d790611d07565b80156109245780601f106108f957610100808354040283529160200191610924565b820191906000526020600020905b81548152906001019060200180831161090757829003601f168201915b50505050509080600201805461093990611d07565b80601f016020809104026020016040519081016040528092919081815260200182805461096590611d07565b80156109b25780601f10610987576101008083540402835291602001916109b2565b820191906000526020600020905b81548152906001019060200180831161099557829003601f168201915b5050505050908060030180546109c790611d07565b80601f01602080910402602001604051908101604052809291908181526020018280546109f390611d07565b8015610a405780601f10610a1557610100808354040283529160200191610a40565b820191906000526020600020905b815481529060010190602001808311610a2357829003601f168201915b505050505090806004018054610a5590611d07565b80601f0160208091040260200160405190810160405280929190818152602001828054610a8190611d07565b8015610ace5780601f10610aa357610100808354040283529160200191610ace565b820191906000526020600020905b815481529060010190602001808311610ab157829003601f168201915b505050505090806005018054610ae390611d07565b80601f0160208091040260200160405190810160405280929190818152602001828054610b0f90611d07565b8015610b5c5780601f10610b3157610100808354040283529160200191610b5c565b820191906000526020600020905b815481529060010190602001808311610b3f57829003601f168201915b505050505090806006018054610b7190611d07565b80601f0160208091040260200160405190810160405280929190818152602001828054610b9d90611d07565b8015610bea5780601f10610bbf57610100808354040283529160200191610bea565b820191906000526020600020905b815481529060010190602001808311610bcd57829003601f168201915b505050505090806007018054610bff90611d07565b80601f0160208091040260200160405190810160405280929190818152602001828054610c2b90611d07565b8015610c785780601f10610c4d57610100808354040283529160200191610c78565b820191906000526020600020905b815481529060010190602001808311610c5b57829003601f168201915b5050505050908060080160009054906101000a900473ffffffffffffffffffffffffffffffffffffffff16905089565b60015481565b60036020528060005260406000206000915054906101000a900460ff1681565b610cd6611457565b6000600190505b60015481116111e8578273ffffffffffffffffffffffffffffffffffffffff166002600083815260200190815260200160002060080160009054906101000a900473ffffffffffffffffffffffffffffffffffffffff1673ffffffffffffffffffffffffffffffffffffffff1614156111d557600260008281526020019081526020016000206040518061012001604052908160008201548152602001600182018054610d8990611d07565b80601f0160208091040260200160405190810160405280929190818152602001828054610db590611d07565b8015610e025780601f10610dd757610100808354040283529160200191610e02565b820191906000526020600020905b815481529060010190602001808311610de557829003601f168201915b50505050508152602001600282018054610e1b90611d07565b80601f0160208091040260200160405190810160405280929190818152602001828054610e4790611d07565b8015610e945780601f10610e6957610100808354040283529160200191610e94565b820191906000526020600020905b815481529060010190602001808311610e7757829003601f168201915b50505050508152602001600382018054610ead90611d07565b80601f0160208091040260200160405190810160405280929190818152602001828054610ed990611d07565b8015610f265780601f10610efb57610100808354040283529160200191610f26565b820191906000526020600020905b815481529060010190602001808311610f0957829003601f168201915b50505050508152602001600482018054610f3f90611d07565b80601f0160208091040260200160405190810160405280929190818152602001828054610f6b90611d07565b8015610fb85780601f10610f8d57610100808354040283529160200191610fb8565b820191906000526020600020905b815481529060010190602001808311610f9b57829003601f168201915b50505050508152602001600582018054610fd190611d07565b80601f0160208091040260200160405190810160405280929190818152602001828054610ffd90611d07565b801561104a5780601f1061101f5761010080835404028352916020019161104a565b820191906000526020600020905b81548152906001019060200180831161102d57829003601f168201915b5050505050815260200160068201805461106390611d07565b80601f016020809104026020016040519081016040528092919081815260200182805461108f90611d07565b80156110dc5780601f106110b1576101008083540402835291602001916110dc565b820191906000526020600020905b8154815290600101906020018083116110bf57829003601f168201915b505050505081526020016007820180546110f590611d07565b80601f016020809104026020016040519081016040528092919081815260200182805461112190611d07565b801561116e5780601f106111435761010080835404028352916020019161116e565b820191906000526020600020905b81548152906001019060200180831161115157829003601f168201915b505050505081526020016008820160009054906101000a900473ffffffffffffffffffffffffffffffffffffffff1673ffffffffffffffffffffffffffffffffffffffff1673ffffffffffffffffffffffffffffffffffffffff1681525050915050611224565b80806111e090611d6a565b915050610cdd565b506040517f08c379a000000000000000000000000000000000000000000000000000000000815260040161121b90611a6f565b60405180910390fd5b919050565b6060813373ffffffffffffffffffffffffffffffffffffffff166002600083815260200190815260200160002060080160009054906101000a900473ffffffffffffffffffffffffffffffffffffffff1673ffffffffffffffffffffffffffffffffffffffff16146112d0576040517f08c379a00000000000000000000000000000000000000000000000000000000081526004016112c790611a4f565b60405180910390fd5b60006002600085815260200190815260200160002060000154141561132a576040517f08c379a000000000000000000000000000000000000000000000000000000000815260040161132190611a6f565b60405180910390fd5b60026000848152602001908152602001600020600601805461134b90611d07565b80601f016020809104026020016040519081016040528092919081815260200182805461137790611d07565b80156113c45780601f10611399576101008083540402835291602001916113c4565b820191906000526020600020905b8154815290600101906020018083116113a757829003601f168201915b5050505050915050919050565b8280546113dd90611d07565b90600052602060002090601f0160209004810192826113ff5760008555611446565b82601f1061141857805160ff1916838001178555611446565b82800160010185558215611446579182015b8281111561144557825182559160200191906001019061142a565b5b50905061145391906114b9565b5090565b6040518061012001604052806000815260200160608152602001606081526020016060815260200160608152602001606081526020016060815260200160608152602001600073ffffffffffffffffffffffffffffffffffffffff1681525090565b5b808211156114d25760008160009055506001016114ba565b5090565b60006114e96114e484611c1f565b611bfa565b90508281526020810184848401111561150157600080fd5b61150c848285611cc5565b509392505050565b60008135905061152381611fb6565b92915050565b600082601f83011261153a57600080fd5b813561154a8482602086016114d6565b91505092915050565b60008135905061156281611fcd565b92915050565b60006020828403121561157a57600080fd5b600061158884828501611514565b91505092915050565b6000602082840312156115a357600080fd5b60006115b184828501611553565b91505092915050565b600080604083850312156115cd57600080fd5b60006115db85828601611553565b925050602083013567ffffffffffffffff8111156115f857600080fd5b61160485828601611529565b9150509250929050565b60008060008060008060008060006101208a8c03121561162d57600080fd5b600061163b8c828d01611553565b99505060208a013567ffffffffffffffff81111561165857600080fd5b6116648c828d01611529565b98505060408a013567ffffffffffffffff81111561168157600080fd5b61168d8c828d01611529565b97505060608a013567ffffffffffffffff8111156116aa57600080fd5b6116b68c828d01611529565b96505060808a013567ffffffffffffffff8111156116d357600080fd5b6116df8c828d01611529565b95505060a08a013567ffffffffffffffff8111156116fc57600080fd5b6117088c828d01611529565b94505060c08a013567ffffffffffffffff81111561172557600080fd5b6117318c828d01611529565b93505060e08a013567ffffffffffffffff81111561174e57600080fd5b61175a8c828d01611529565b92505061010061176c8c828d01611514565b9150509295985092959850929598565b61178581611c7d565b82525050565b61179481611c7d565b82525050565b6117a381611c8f565b82525050565b60006117b482611c50565b6117be8185611c5b565b93506117ce818560208601611cd4565b6117d781611e40565b840191505092915050565b60006117ed82611c50565b6117f78185611c6c565b9350611807818560208601611cd4565b61181081611e40565b840191505092915050565b6000611828602383611c6c565b915061183382611e51565b604082019050919050565b600061184b602b83611c6c565b915061185682611ea0565b604082019050919050565b600061186e601183611c6c565b915061187982611eef565b602082019050919050565b6000611891602283611c6c565b915061189c82611f18565b604082019050919050565b60006118b4602283611c6c565b91506118bf82611f67565b604082019050919050565b6000610120830160008301516118e360008601826119b9565b50602083015184820360208601526118fb82826117a9565b9150506040830151848203604086015261191582826117a9565b9150506060830151848203606086015261192f82826117a9565b9150506080830151848203608086015261194982826117a9565b91505060a083015184820360a086015261196382826117a9565b91505060c083015184820360c086015261197d82826117a9565b91505060e083015184820360e086015261199782826117a9565b9150506101008301516119ae61010086018261177c565b508091505092915050565b6119c281611cbb565b82525050565b6119d181611cbb565b82525050565b60006020820190506119ec600083018461178b565b92915050565b6000602082019050611a07600083018461179a565b92915050565b60006020820190508181036000830152611a2781846117e2565b905092915050565b60006020820190508181036000830152611a488161181b565b9050919050565b60006020820190508181036000830152611a688161183e565b9050919050565b60006020820190508181036000830152611a8881611861565b9050919050565b60006020820190508181036000830152611aa881611884565b9050919050565b60006020820190508181036000830152611ac8816118a7565b9050919050565b60006020820190508181036000830152611ae981846118ca565b905092915050565b6000602082019050611b0660008301846119c8565b92915050565b6000604082019050611b2160008301856119c8565b8181036020830152611b3381846117e2565b90509392505050565b600061012082019050611b52600083018c6119c8565b8181036020830152611b64818b6117e2565b90508181036040830152611b78818a6117e2565b90508181036060830152611b8c81896117e2565b90508181036080830152611ba081886117e2565b905081810360a0830152611bb481876117e2565b905081810360c0830152611bc881866117e2565b905081810360e0830152611bdc81856117e2565b9050611bec61010083018461178b565b9a9950505050505050505050565b6000611c04611c15565b9050611c108282611d39565b919050565b6000604051905090565b600067ffffffffffffffff821115611c3a57611c39611e11565b5b611c4382611e40565b9050602081019050919050565b600081519050919050565b600082825260208201905092915050565b600082825260208201905092915050565b6000611c8882611c9b565b9050919050565b60008115159050919050565b600073ffffffffffffffffffffffffffffffffffffffff82169050919050565b6000819050919050565b82818337600083830152505050565b60005b83811015611cf2578082015181840152602081019050611cd7565b83811115611d01576000848401525b50505050565b60006002820490506001821680611d1f57607f821691505b60208210811415611d3357611d32611de2565b5b50919050565b611d4282611e40565b810181811067ffffffffffffffff82111715611d6157611d60611e11565b5b80604052505050565b6000611d7582611cbb565b91507fffffffffffffffffffffffffffffffffffffffffffffffffffffffffffffffff821415611da857611da7611db3565b5b600182019050919050565b7f4e487b7100000000000000000000000000000000000000000000000000000000600052601160045260246000fd5b7f4e487b7100000000000000000000000000000000000000000000000000000000600052602260045260246000fd5b7f4e487b7100000000000000000000000000000000000000000000000000000000600052604160045260246000fd5b6000601f19601f8301169050919050565b7f4f6e6c7920646f63746f722063616e20706572666f726d20746869732061637460008201527f696f6e0000000000000000000000000000000000000000000000000000000000602082015250565b7f4f6e6c792070617469656e742063616e2076696577207468656972206d65646960008201527f63616c20686973746f7279000000000000000000000000000000000000000000602082015250565b7f50617469656e74206e6f7420666f756e64000000000000000000000000000000600082015250565b7f4f6e6c792061646d696e2063616e20706572666f726d2074686973206163746960008201527f6f6e000000000000000000000000000000000000000000000000000000000000602082015250565b7f4f6e6c79206f776e65722063616e20706572666f726d2074686973206163746960008201527f6f6e000000000000000000000000000000000000000000000000000000000000602082015250565b611fbf81611c7d565b8114611fca57600080fd5b50565b611fd681611cbb565b8114611fe157600080fd5b5056fea264697066735822122049fb89d7ffb905710b47d7f882c8247dc241850efe058b93e0e028f78b87852464736f6c63430008040033",
  "linkReferences": {},
  "deployedLinkReferences": {}
}